:020000040800F2
:105000004041002029520008FD6A0008F9650008A7
:10501000A9690008415F0008C17000080000000095
:105020000000000000000000000000009151000896
:10503000F161000800000000D55100082970000847
:1050400043520008435200084352000843520008EC
:1050500043520008435200084352000843520008DC
:1050600043520008435200084352000843520008CC
:1050700043520008435200084352000843520008BC
:1050800043520008435200084352000843520008AC
:10509000435200084352000843520008435200089C
:1050A000435200084352000843520008435200088C
:1050B000435200084352000843520008435200087C
:1050C000435200084352000843520008435200086C
:1050D000435200084352000843520008435200085C
:1050E00043520008435200084352000800F002F8FF
:1050F00000F03FF80AA090E8000C82448344AAF133
:105100000107DA4501D100F034F8AFF2090EBAE830
:105110000F0013F0010F18BFFB1A43F001031847EB
:10512000944A0000B44A0000103A24BF78C878C1FD
:10513000FAD8520724BF30C830C144BF04680C609D
:10514000704700000023002400250026103A28BFE5
:1051500078C1FBD8520728BF30C148BF0B607047E9
:10516000642900F0BF80002070471FB51FBD10B537
:1051700010BD00F024FB1146FFF7F7FF01F0A9FF77
:1051800000F042FB03B4FFF7F2FF03BC00F04AFB60
:10519000224B19680868B0E8F00F80F30988BFF364
:1051A0006F8F4FF0000080F311884EF00D0E7047A6
:1051B0000000000006480068006880F3088862B6B6
:1051C00061B6BFF34F8FBFF36F8F00DF00BF00BF2B
:1051D00008ED00E0EFF30980BFF36F8F0F4B1A6803
:1051E00020E9F00F106008B54FF0100080F311882F
:1051F000BFF34F8FBFF36F8F03F0B6F84FF000008F
:1052000080F31188BDE8084019680868B0E8F00F1D
:1052100080F30988BFF36F8F704700BF180000202C
:10522000EFF30580704700000948804709480047B0
:10523000FEE7FEE7FEE7FEE7FEE7FEE7FEE7FEE746
:10524000FEE7FEE704480549054A064B70470000A3
:1052500039700008ED500008403B0020404100201C
:10526000403D0020403D00200FB41CB5084B06AA6D
:105270007B4469460090059800F089FA04460020B6
:10528000694600F097FA20461CBC5DF814FB00004C
:105290004105000070B5044685690068C10601D566
:1052A000302600E02026C00707D070BDD4E90121D8
:1052B00030469047206A401C20626D1EF6D570BDB6
:1052C00070B5044685690078C00707D170BDD4E980
:1052D000012120209047206A401C20626D1EF6D5D7
:1052E00070BD00002DE9F0410646002410687529C4
:1052F000314616A510D0AFF30080002802DA4042F4
:1053000013A507E031688A0701D512A502E0490715
:1053100004D511A5012401E0AFF3008000210A2289
:1053200006F1240709E0B0FBF2FCB0FBF2F302FB4C
:105330001C00303078541846491C0028F3D123460D
:105340002A463046BDE8F04100F0C2B90000000036
:105350002D0000002B000000200000002DE9F05F70
:10536000894604464FF0000ADFF874B1FB44C0F8E8
:1053700020A02046E1688847002874D0252806D060
:10538000D4E901219047206A401C2062F1E7002601
:105390005F462046E16888472028054607DB312D17
:1053A00005D2781910F8200C08B10643F1E7B007D0
:1053B00001D526F00406C4F81CA00027C4F818A0E4
:1053C0002A2D09D0284601F07DFE38B304EB87086A
:1053D000303DC8F8185019E059F8041B204604EB7A
:1053E00087029161E1688847012F054618D1E0697D
:1053F000002820DA26F020061DE0D8F8180000EB7F
:10540000800005EB40003038C8F818002046E168FD
:105410008847054601F056FE0028EED1012F0AD03C
:105420002E2D08D12046E16888477F1C0546022FB3
:1054300046F02006C4DBA069002803DA404246F0AB
:105440000106A061F00701D026F010066C2D0BD0EC
:10545000682D09D04C2D39D06A2D35D0742D35D01A
:105460007A2D33D016E038E0E1682F462046884791
:10547000B842054609D16C2F26D04FF48060E16810
:10548000064320468847054604E06C2F1AD04FF4A7
:10549000807006430DB3A5F14100192802D82035CC
:1054A00046F400664A462946204626604E46FFF7E7
:1054B00057FE80B101280BD0F61D26F0070000F141
:1054C000080956E74020E4E78020D8E70020D6E727
:1054D00006F104094DE7284652E7206ABDE8F09F2F
:1054E00031480000032A40F2308010F0030C00F035
:1054F000158011F8013BBCF1020F624498BF11F80E
:1055000001CB00F8013B38BF11F8013BA2F10402C6
:1055100098BF00F801CB38BF00F8013B11F003033E
:1055200000F02580083AC0F0088051F8043B083AA2
:1055300051F804CBA0E80810F5E7121D5CBF51F844
:10554000043B40F8043BAFF30080D20724BF11F8BE
:10555000013B11F801CB48BF11F8012B24BF00F823
:10556000013B00F801CB48BF00F8012B704710B594
:10557000203AC0F00B80B1E81850203AA0E818504B
:10558000B1E81850A0E81850BFF4F5AF5FEA027C0C
:1055900024BFB1E81850A0E8185044BF18C918C07B
:1055A000BDE810405FEA827C24BF51F8043B40F81C
:1055B000043B08BF7047D20728BF31F8023B48BF01
:1055C00011F8012B28BF20F8023B48BF00F8012B3F
:1055D000704702F0FF0343EA032242EA024200F06E
:1055E00002B84FF000020429C0F0128010F0030C42
:1055F00000F01B80CCF1040CBCF1020F18BF00F8C6
:10560000012BA8BF20F8022BA1EB0C0100F00DB874
:105610005FEAC17C24BF00F8012B00F8012B48BFD2
:1056200000F8012B70474FF0000200B51346944676
:105630009646203922BFA0E80C50A0E80C50B1F1EA
:105640002001BFF4F7AF090728BFA0E80C5048BFFE
:105650000CC05DF804EB890028BF40F8042B08BF9C
:10566000704748BF20F8022B11F0804F18BF00F898
:10567000012B704710B5044610F0030F08BF11F05E
:10568000030F40F015804FF0013E121FC0F20E8054
:1056900051F8043BA3EB0E0C2CEA030C1CEACE1CC5
:1056A00008BF40F8043BF0D0A1F1040102F104026C
:1056B000521E08DB11F8013B002B00F8013BF7D12B
:1056C0001146FFF78EFF204610BD704770477047A8
:1056D0002DE9F0470D4699469246044600F124080C
:1056E0000168880604D5E06921F01001216000E01E
:1056F0000120A84201DD471B00E00027A1697A19BB
:1057000002EB0900081AA0612078C00602D42046E6
:10571000FFF7C0FD002608E0D4E901211AF80600D1
:105720009047206A401C761C20624E45F4DB2078AE
:10573000C0060AD52046FFF7ADFD06E0D4E90121F9
:1057400030209047206A401C2062381EA7F10107D4
:10575000F4DC07E0D4E9012118F805009047206A3D
:10576000401C2062281EA5F10105F3DC2046FFF74E
:10577000A7FD2078000602D50220BDE8F0870120B1
:10578000FBE7000001694A1C02610878704700B518
:105790008FB0CDE901310021059105497944CDE96A
:1057A000031011466846FFF7D9FD0FB000BD000099
:1057B000E5FFFFFF0A6802F8010B0A6070477546B3
:1057C00000F02CF8AE4605006946534620F007006D
:1057D000854618B020B5FFF735FDBDE820404FF0F5
:1057E00000064FF000074FF000084FF0000B21F0CB
:1057F0000701AC46ACE8C009ACE8C009ACE8C00998
:10580000ACE8C0098D46704710B50446AFF3008080
:105810002046BDE81040FFF7B5BC000000487047C7
:10582000DC3A002001491820ABBEFEE7260002004A
:105830007047000008B501211C2001F05DFB042029
:105840008DF8030003208DF802000520ADF800005C
:1058500069460A4800F0EAFD4FF40050ADF8000038
:105860006946074800F0E2FD4FF48060ADF80000A3
:105870006946044800F0DAFD08BD00000008014058
:1058800000100140000C014010B532232D4A0421C4
:105890002D4800F057FB90B12C48007838B9012012
:1058A00000F072FA03F0B8F92849486007E0274889
:1058B0000078012803D103F0AFF92449486032236E
:1058C000234A0121204800F03DFB90B11F48007899
:1058D000012803D1002000F057FA0AE01B48407865
:1058E00008B9012000E000200246104600F042FA0C
:1058F00000BF1423174A4FF40051174800F022FB51
:1059000028B101F0C9FB03F087F910494860322340
:10591000124A4FF48061124800F014FB88B10B4822
:10592000007870B900BF0F48006800F4E0600E49CD
:105930000843001D0B490860BFF34F8F00BF00BF35
:10594000FEE710BDAC00002000080140C83A00206E
:10595000AD000020AE00002000100140AF0000208C
:10596000000C01400CED00E00000FA0510B503F05A
:1059700053F9044607480078012809D105484068D2
:10598000201A42F21071884202D9002000F0FCF97E
:1059900010BD0000C83A002010B5002225210A20C1
:1059A00002F0D3FD05490860012002F0BDFD044965
:1059B000086000F073F900F087F910BD980000202E
:1059C0009400002000F03EFF06E0FFF75DFFFFF7C8
:1059D000CDFF322002F062FBF7E7000092B001F049
:1059E00033F901F097F844480078012802D100F01B
:1059F00073FC01E000F0CAFC7DE003F00DF9044601
:105A00003E480068201AB0F57A7F32D33A480078D1
:105A100001282AD13848C07B00903748837B427BDD
:105A200037A102A8FFF720FC02AA0121022001F001
:105A3000F9F93148806838490968884214D02E48FD
:105A40008068012800D100E00020024633A101A8AF
:105A5000FFF70AFC01AA0821062001F0E3F9264815
:105A600080682D49086000BF01E000F08FFC2348EA
:105A700004600A2208A92A48006802F0DBFE012817
:105A800038D164212748006802F088FF012831D10D
:105A90009DF8200030B101280DD0022814D0032831
:105AA00020D114E09DF821109DF822000DF1230271
:105AB00001F0EEF916E09DF821109DF822000DF19D
:105AC000230201F0D1F90DE001F024F80AE001F021
:105AD00021F89DF8430010B900F058FC01E000F0F7
:105AE000FBFB00BF00BF00231A4619460D480068A3
:105AF00002F0CCFD00BF80E7C83A0020B4000020CF
:105B000054696D653A20253032643A253032643A62
:105B10002530326400000000B80000202564000039
:105B20009800002094000020A0B0002700F0EAFEBA
:105B300000F052FA642000F08BFB1AA81BA91CABE2
:105B40001DAACDE900101EA91FA800F085FEBDF911
:105B50007C004043BDF9781001FB0100BDF97410D1
:105B600001FB0100642190FBF1F86EE003F054F8B2
:105B70000446E01BB0F57A7F64D91AA81BA91CABB8
:105B80001DAACDE900101EA91FA800F065FEBDF9F1
:105B90007C004043BDF9781001FB0100BDF9741091
:105BA00001FB0100642190FBF1F5A5EB0800002842
:105BB00001DB014600E0414241F27072914206DD94
:105BC00022484460007810B9012000F0DDF81F4839
:105BD0000078012834D118A800F07EFA0646D6B91C
:105BE0009DF863309DF8622019A108A8FFF73CFBDF
:105BF00008AA0121032001F015F99DF861309DF8F4
:105C0000602017A16846FFF72FFB6A460121042098
:105C100001F008F909E016A20121032001F002F9C0
:105C200017A20121042001F0FDF82A4618A110A8AE
:105C3000FFF71AFB10AA0121052001F0F3F800BFBD
:105C4000A8462746642002F029FA8FE7C83A0020C8
:105C500054656D703A2025642E25644300000000D1
:105C600048756D693A2025642E25642525000000BD
:105C700054656D703A204552524F52210000000089
:105C800048756D693A204552524F5221000000007C
:105C90004143433A20256C640000000010B5012107
:105CA000084601F029F90121064800F04BFC00F0FC
:105CB000A1FA00F0A3FDFFF7BDFD00F09FFC00F08E
:105CC000ADF810BD000230001CB5154805210023B9
:105CD0004FF40072CDE9001012A1144802F070FFD9
:105CE0001348042100238022CDE9001011A114489B
:105CF00002F066FF1348012100230A02CDE90010DB
:105D000011A1134802F05CFF1248022100230A028D
:105D1000CDE9001010A1124802F052FF1CBD000096
:105D2000A00000204F4C454400000000DD59000851
:105D30009C0000204C45445F5461736B00000000E0
:105D4000C5590008A800002054696D6500000000D6
:105D5000655D0008A400002053656E736F7200003B
:105D6000295B000805E000F031F84FF47A7002F08A
:105D700095F9F8E703494978814201D00149487013
:105D800070470000C83A002010B504460E4800785D
:105D9000A04218D00C480470012C05D100F052FD2F
:105DA00001200949087304E000F042FD0020064983
:105DB0000873054A5178012C01D1012200E000222C
:105DC000104600F0A9FF10BDC83A00201248C07B61
:105DD000401C1149C8730846C07B3C2815DB0020D5
:105DE000C8730846807B401C88730846807B3C282B
:105DF0000BDB002088730846407B401C4873084634
:105E0000407B182801DB0020487303480069401CD0
:105E10000149086170470000C83A002010B50C48DD
:105E2000007800B110BD00F040F80A4988600846CB
:105E30008068012807D00846806820B1002088606B
:105E4000886800F06CF801200149087000BFE9E79C
:105E5000B0000020C83A002070B5044600F072FC83
:105E6000A02000F041FC642000F09CFC08B1FF2061
:105E700070BD204600F038FC642000F093FC08B1AF
:105E8000FF20F5E700F05EFCA12000F02DFC64206F
:105E900000F088FC08B1FF20EAE7002000F0D8FB02
:105EA000054600F067FC2846E2E7F8B5F02600203A
:105EB00000906F4600240AE03119C8B2FFF7CCFF0A
:105EC0000546FF2D01D10020F8BD3D55641C042C72
:105ED000F2DB0098F8E770B505460C4600F032FC9E
:105EE000A02000F001FC642000F05CFC08B101205F
:105EF00070BD284600F0F8FB642000F053FC08B1A8
:105F00000220F5E7204600F0EFFB642000F04AFC99
:105F100008B10320ECE700F02DFC0020E8E7F1B524
:105F2000F0256E46002408E0315D2A19D0B2FFF753
:105F3000D2FF052000F08CF9641C042CF4DBF8BDC2
:105F400000BFFEE72DE9F04106460F4614461D4608
:105F50003946304600F03EFB68B9207868B92846DB
:105F600000F076F93946304600F034FB28B90120BC
:105F70002070BDE8F081002020700020F9E70000CB
:105F800008B50121082000F0B7FF04208DF80300B8
:105F90004002ADF8000003208DF802006946024877
:105FA00000F044FA08BD0000000C014008B50121D2
:105FB000082000F0A1FF10208DF80300C001ADF80B
:105FC000000003208DF802006946024800F02EFA16
:105FD00008BD0000000C014010B5FFF7E7FF4FF4CB
:105FE0000061024800F001FB10BD0000000C014000
:105FF0002DE9FC5F4FF0000AD3460020019000908D
:1060000000F0D6F84FF40061314800F0EEFA0024B9
:1060100003E0641C012000F03BF94FF400612C48C0
:1060200000F0D8FA10B9B4F57A7FF2D3B4F57A7FDC
:1060300001D3BDE8FC9F002403E0641C012000F0B4
:1060400027F94FF40061224800F0C4FA012802D178
:10605000B4F57A7FF1D3B4F57A7F00D3E9E700F0A5
:1060600063F8054600F060F8074600F05DF8064664
:1060700000F05AF8804600F057F881460DB906B98D
:10608000D7E74FF40061124800F0ADFA372000F076
:10609000FFF84FF400610E4800F0A7FAE819304409
:1060A0004044484508D105F0FF0A07F0FF0BF0B265
:1060B000019008F0FF0000900648C0F800A0C0F86A
:1060C00004B00449019888600098C86000BFB0E738
:1060D000000C0140B83A002010B50446FFF788FFD5
:1060E0001048006810B90F488068C8B10D480078A2
:1060F00020700C48007960700A48007AA070094846
:10610000007BE07007480078064909790844054992
:10611000097A08440349097B08442071002010BD16
:106120000120FCE7B83A002070B50026002500BF2A
:1061300038E0002403E0641C012000F0A9F84FF4CB
:1061400000611A4800F046FA10B9B4F57A7FF2D32C
:10615000B4F57A7F01D3002070BD1E2000F098F8BE
:106160006806050E4FF40061104800F033FA01286C
:1061700001D145F00105002403E0641C012000F07A
:1061800087F84FF40061094800F024FA012802D191
:10619000B4F57A7FF1D3B4F57A7F01D30020DBE741
:1061A000701CC6B2082EC4DB2846D5E7000C01409F
:1061B00010B5FFF7FBFE4FF400610C4800F015FA34
:1061C0001E2000F065F84FF40061084800F00BFA5B
:1061D000142000F03DF84FF40061044800F005FA87
:1061E0001E2000F055F8FFF7CBFE10BD000C01405B
:1061F0007047000010B5042000F002FF104800684E
:106200001049B0FBF1F0104908700D4800680D49C5
:10621000B0FBF1F44FF47A70444301200B4908803D
:106220004FF0E020006940F002004FF0E0210861EB
:1062300008464461006940F00100086110BD00009B
:106240000000002040420F00140000201600002033
:1062500070B5044602F0D0FC012810D00B4800882D
:10626000844206D309480088B4FBF0F5284601F0C3
:1062700015FF06480088B4FBF0F100FB11444FF411
:106280007A7104FB01F000F003F870BD16000020E5
:1062900070B5034600224FF0E02675690D4E367842
:1062A00003FB06F44FF0E026B16910E04FF0E02662
:1062B000B06988420BD0884202D20E1A324402E002
:1062C0002E1A0E4432440146A24200D300E0EDE70C
:1062D00000BF70BD1400002008B517A201210846B8
:1062E00000F0A0FD19A20121022000F09BFD1BA2DD
:1062F0000121032000F096FD1BA20121042000F0E3
:1063000091FD1CA20121052000F08CFD1BA20121A2
:10631000062000F087FD1B488068012800D100E0BE
:106320000020024618A16846FEF79EFF6A46082133
:10633000062000F077FD08BD536D6172742044653E
:10634000736B20436C6F636B0000000054696D65D4
:106350003A2030303A30303A3030000054656D70B9
:106360003A202D2D2E2D430048756D693A202D2D94
:106370002E2D25004143433A202D2D004F54413A04
:1063800020000000C83A00202564000000B585B058
:106390001948C07B00901848837B427B17A102A854
:1063A000FEF762FF02AA0121084600F05DFD17A278
:1063B0000721042000F06CFD0F48407828B916A290
:1063C0000921062000F064FD04E015A20921062041
:1063D00000F05EFD08488068012800D100E0002040
:1063E000024611A101A8FEF73FFF01AA15210720CF
:1063F00000F04EFD05B000BDC83A002025303264E3
:106400003A253032643A2530326400003230323579
:106410002D30372D3236000053555A484F55000065
:106420004E414E4A494E4700256400002DE9F04197
:10643000024600250026002000230024002791F8B2
:1064400003C00CF00F0591F803C00CF0100CBCF168
:10645000000F03D091F802C04CEA050591F800C086
:10646000BCF1000F31D0146800202BE04FF0010C7C
:106470000CFA00F3B1F800C00CEA03069E4220D1EA
:1064800083004FF00F0C0CFA03F7BC4305FA03FC32
:106490004CEA040491F803C0BCF1280F06D14FF078
:1064A000010C0CFA00FCC2F814C00AE091F803C019
:1064B000BCF1480F05D14FF0010C0CFA00FCC2F8FA
:1064C00010C0401C0828D1D31460B1F800C0BCF142
:1064D000FF0F34DD546800202EE000F1080C4FF06F
:1064E000010808FA0CF3B1F800C00CEA03069E425A
:1064F00021D183004FF00F0C0CFA03F7BC4305FACF
:1065000003FC4CEA040491F803C0BCF1280F05D148
:1065100000F1080C08FA0CF8C2F8148091F803C0D6
:10652000BCF1480F07D100F1080C4FF0010808FA40
:106530000CF8C2F81080401C0828CED35460BDE887
:10654000F0810000F0B50A46002300240021002558
:1065500000F00046B6F1004F02D11D4EF16901E096
:106560001B4E7168C0F3034583B200F44016B6F5C4
:10657000401F08D121F07061154E766826F07066D4
:10658000134F7E6012E000F48016B6F5801F06D12E
:10659000032606FA05F4A14341F0706106E0460DBA
:1065A000360103FA06F6B14341F0706122B1460D9F
:1065B000360103FA06F6314300F00046B6F1004F0B
:1065C00002D1034EF16101E0014E7160F0BD0000A7
:1065D000000001400246002093680B400BB10120EF
:1065E00000E00020704741617047016170470AB1C7
:1065F000016100E04161704700BFFEE708B501217D
:10660000082000F079FC14208DF803004020ADF83C
:10661000000003208DF8020069460C48FFF706FFD2
:1066200014208DF803008020ADF8000003208DF8C1
:10663000020069460548FFF7F9FE40210348FFF7CD
:10664000D4FF80210148FFF7D0FF08BD000C0140B6
:1066500070B505460026072418E040212148FFF7C1
:10666000C2FF0220FFF714FE40211E48FFF7BDFFC6
:1066700080211C48FFF7AEFF18B10120A040304335
:10668000C6B20220FFF704FE601E44B2002CE4DA1A
:1066900040211448FFF7A7FF9DB180211148FFF763
:1066A000A2FF40210F48FFF7A0FF0220FFF7F0FDF7
:1066B00040210C48FFF797FF80210A48FFF795FF1C
:1066C0000EE080210748FFF790FF40210548FFF7C3
:1066D0008CFF0220FFF7DCFD40210248FFF783FF1B
:1066E000304670BD000C014070B5054607241CE023
:1066F00040211348FFF777FF0120A040284020B138
:1067000080210F48FFF771FF03E080210C48FFF75D
:106710006AFF0220FFF7BCFD40210948FFF765FF33
:106720000220FFF7B5FD601E44B2002CE0DA4021E4
:106730000348FFF758FF80210148FFF756FF70BD5F
:10674000000C014010B540210948FFF74EFF8021A1
:106750000748FFF74AFF0220FFF79AFD802104480F
:10676000FFF741FF40210248FFF73DFF10BD000049
:10677000000C014010B540210948FFF734FF80218B
:106780000748FFF730FF0220FFF782FD4021044851
:10679000FFF72BFF80210248FFF727FF10BD000005
:1067A000000C014010B5044600BF601E04B2022078
:1067B000FFF76EFD80211048FFF70CFF08B1002C99
:1067C000F3DA002C01DA012010BD40210A48FFF75E
:1067D0000CFF0220FFF75CFD80210748FFF7FAFE5F
:1067E00008B10220F0E740210348FFF7FCFE022039
:1067F000FFF74EFD0020E7E7000C014008B501213E
:10680000042000F079FB10208DF803000001ADF8A2
:10681000000003208DF8020069460448FFF706FED9
:106820004FF480710148FFF7E0FE08BD0008014009
:1068300010B54FF480710248FFF7D5FE10BD00007F
:106840000008014010B54FF480710248FFF7CDFEFB
:1068500010BD0000000801402DE9F05F06460F461C
:1068600090469946DDE90AAB3B2000F067F8044604
:106870003C2000F063F8054645EA042000B2308071
:106880003D2000F05BF804463E2000F057F8054636
:1068900045EA042000B238803F2000F04FF804465B
:1068A000402000F04BF8054645EA042000B2A8F865
:1068B0000000432000F042F80446442000F03EF877
:1068C000054645EA042000B2A9F80000452000F082
:1068D00035F80446462000F031F8054645EA042024
:1068E00000B2AAF80000472000F028F8044648202B
:1068F00000F024F8054645EA042000B2ABF8000099
:10690000BDE8F09F10B500F051F801216B2000F0B8
:1069100034F800216C2000F030F80921192000F033
:106920002CF806211A2000F028F818211B2000F06E
:1069300024F818211C2000F020F810BD70B5044682
:1069400000F0A7F8D02000F08BF800F055F82046B2
:1069500000F086F800F050F800F09BF8D12000F02D
:106960007FF800F049F800F056F80546012000F0E5
:106970006BF800F09CF8284670BD70B505460C46D3
:1069800000F087F8D02000F06BF800F035F82846CA
:1069900000F066F800F030F8204600F061F800F0F2
:1069A0002BF800F084F870BD00BFFEE708B50121A8
:1069B000082000F0A1FA14208DF803000320ADF8A0
:1069C00000008DF8020069460348FFF72FFD032100
:1069D0000148FFF70AFE08BD000C014010B5022176
:1069E0000448FFF7F7FD04460A20FFF751FC204654
:1069F00010BD0000000C014010B5012000F070F83F
:106A0000012000F05FF8FFF7E9FF0446002000F0E6
:106A100059F8204610BD70B50025012000F060F83F
:106A200000240DE0012000F04DF8FFF7D7FF10B172
:106A3000802020410543002000F044F8601CC4B2CF
:106A4000082CEFDB284670BD10B50446204600F048
:106A500047F8012000F036F8002000F033F810BDB0
:106A600070B50546002411E080212141294009B17B
:106A7000012100E00021084600F032F8012000F07A
:106A800021F8002000F01EF8601CC4B2082CEBDBDB
:106A900070BD10B5012000F023F8012000F012F8BD
:106AA000002000F01DF8002000F00CF810BD10B51B
:106AB000002000F015F8012000F004F8012000F09B
:106AC0000FF810BD10B50446224601210348FFF718
:106AD0008EFD0A20FFF7DCFB10BD0000000C01401A
:106AE00010B50446224602210348FFF780FD0A2024
:106AF000FFF7CEFB10BD0000000C01407047000006
:106B000002490143024A1160704700000000FA0583
:106B10000CED00E070B500240EE00021204600F0EE
:106B2000EAF8002504E0002000F0D6F9681CC5B2A0
:106B3000802DF8DB601CC4B2082CEEDB70BD0000B9
:106B400008B50121082000F0D7F914208DF80300C2
:106B500003208DF802004FF48050ADF80000694624
:106B60000A48FFF763FC4FF40050ADF80000694697
:106B70000648FFF75BFC012211030448FFF737FDCD
:106B8000012251030148FFF732FD08BD000C01400E
:106B900070B50546002419E080202041284008B146
:106BA000012000E0002002464FF400510E48FFF79C
:106BB0001EFD012211030C48FFF719FD00224FF4BE
:106BC00080510948FFF713FD601CC4B2082CE3DBB9
:106BD000012211030448FFF70AFD00224FF48051FF
:106BE0000148FFF704FD70BD000C014010B5012203
:106BF00051030A48FFF7FBFC012211030748FFF786
:106C0000F6FC00224FF400510448FFF7F0FC00228C
:106C10004FF480510148FFF7EAFC10BD000C014021
:106C200010B500224FF400510648FFF7E0FC0122A6
:106C300011030448FFF7DBFC012251030148FFF771
:106C4000D6FC10BD000C014070B5002406E0002504
:106C500000E06D1CB5F57A7FFBD3641CB4F57A7F38
:106C6000F5D3FFF76DFFAE2000F026F9D52000F038
:106C700023F9802000F020F9A82000F01DF93F2022
:106C800000F01AF9D32000F017F9002000F014F9F1
:106C9000402000F011F9A12000F00EF9C82000F00A
:106CA0000BF9DA2000F008F9122000F005F9812034
:106CB00000F002F9CF2000F0FFF8D92000F0FCF836
:106CC000F12000F0F9F8DB2000F0F6F8302000F0B9
:106CD000F3F8A42000F0F0F8A62000F0EDF88D20E5
:106CE00000F0EAF8142000F0E7F8AF2000F0E4F834
:106CF000FFF710FF70BD70B505460C4645F0B000BB
:106D000000F0DAF8102141EA141000F0D5F804F090
:106D10000F0000F0D1F870BD30B58BB005460C46C1
:106D20002822084901A8FEF722FC8DF827508DF88B
:106D3000284000230A2201A90348006801F0A6FCAC
:106D40000BB030BD7C9B0008980000202DE9F05F5F
:106D5000074688461646781E40064FEA106AA8F194
:106D6000010000074FEA106B59465046FFF7C3FF7A
:106D7000002411E0A6F12000184901EB001010F8E2
:106D80000490002504E0484600F0A6F8681CC5B24F
:106D9000022DF8DB601CC4B2082CEBDB0AF1010108
:106DA000C8B25946FFF7A7FF002413E0A6F1200060
:106DB0000A4901EB001104F1080011F800900025C8
:106DC00004E0484600F088F8681CC5B2022DF8DBE4
:106DD000601CC4B2082CE9DBBDE8F09F00930008FA
:106DE0002DE9F04105460E461746721E02EB42029F
:106DF0005206110E6A1ED0B2FFF77DFF00240BE091
:106E0000A7F1200101EB4101054A02EB4101085DB8
:106E100000F062F8601CC4B2062CF1DBBDE8F08122
:106E2000F098000870B58AB004460D461646282131
:106E30006846FEF7F8FB8DF801508DF802401F22DE
:106E400031460DF10300FEF715FC00218DF82210EC
:106E500000230A2269460348006801F017FC0AB0C3
:106E600070BD0000980000202DE9F04107460E4655
:106E70001546002407E02A5D3019C1B23846FFF7F5
:106E800065FF601CC4B2285D0028F4D1BDE8F08124
:106E90002DE9F04107460E461546002407E02A5D1D
:106EA0003019C1B23846FFF79BFF601CC4B2285DA1
:106EB0000028F4D1BDE8F08110B50446FFF796FE36
:106EC0007820FFF765FE0020FFF762FE2046FFF7FF
:106ED0005FFEFFF7A5FE10BD10B50446FFF786FE66
:106EE0007820FFF755FE4020FFF752FE2046FFF7BF
:106EF0004FFEFFF795FE10BD29B1064A9269024385
:106F0000044B9A6104E0034A92698243014B9A61FF
:106F1000704700000010024010B500F001F810BDED
:106F20000CB50020019000903348006840F4803098
:106F30003149086000BF3048006800F4003000901C
:106F40000198401C0190009818B90198B0F5A06F05
:106F5000F1D12948006800F4003010B10120009000
:106F600001E0002000900098012843D123480068E8
:106F700040F01000214908600846006820F0030036
:106F800008600846006840F0020008601A4840683F
:106F9000194948600846406848600846406840F41F
:106FA000806048600846406820F47C1048600846CD
:106FB000406840F4E81048600846006840F080707F
:106FC000086000BF0C48006800F000700028F9D08D
:106FD0000948406820F003000749486008464068B7
:106FE00040F00200486000BF0348406800F00C0019
:106FF0000828F9D10CBD000000100240002002401A
:10700000042808D14FF0E021096941F004014FF054
:10701000E022116107E04FF0E021096921F004014D
:107020004FF0E0221161704710B501F0E5FD012835
:1070300001D001F05FFA10BD10B51248006840F0B1
:10704000010010490860084640680F4908400D4992
:107050004860084600680D4908400A49086008462B
:10706000006820F4802008600846406820F4FE0094
:1070700048604FF41F008860FFF74EFF0448054941
:10708000086010BD001002400000FFF8FFFFF6FE90
:107090000050000808ED00E010B50848806801289D
:1070A00001D0012000E00020044988608868FEF7D4
:1070B00036FF0A20FFF7CCF810BD0000C83A0020C8
:1070C00000BFFEE730380A2801D2012070470020B7
:1070D00070474FF44070FFF713FDFEF75DFC01F0C1
:1070E000FDF800BFFEE700002DE9F04705460E461B
:1070F000294807682948D0F800802948D0F800902E
:1071000028480068001D00F079FE50B92548006845
:1071100090F82C10012088402349096881432248B7
:107120000160681CE0B9DEB100BF204948681D4914
:10713000096888601B4982680968CA60194909683A
:10714000091D8268516017490968091D8160174A45
:10715000144909684A6111460968491C116018E020
:107160007C19104800684460BC4206D20D48016892
:10717000091D484600F066FE0BE00A480168091D3B
:10718000404600F05FFE0A480068844201D2084889
:107190000460BDE8F08700002C0000201C000020E7
:1071A0002000002018000020300000207C02002079
:1071B0004800002010B5044600F05EFE3448006828
:1071C000401C334908603348006840B931480460C6
:1071D0000846006801280DD100F06EFA0AE02E483A
:1071E000006838B92B480068C06AE16A884201D853
:1071F0002848046029480068401C2849086008465F
:107200000068206400BF94F82C10012088402449B5
:10721000096808432249086000BFE16A01EB810167
:10722000204A02EB81014868A0608268E260211D6B
:10723000826851608160E16A01EB8101194A02EBC9
:1072400081026261E16A01EB8101164A52F8211064
:10725000491CE26A02EB8202124B43F8221000BF83
:1072600000BF00F033FE0C48006878B100BF094849
:107270000068C06AE16A884207D24FF080500A492C
:107280000860BFF34F8FBFF36F8F00BF10BD0000CA
:1072900028000020180000203400002044000020B6
:1072A00030000020EC00002004ED00E010B500F0FC
:1072B000E3FD10480068D0B90F4800F0B3FD0F4857
:1072C00000F0B0FD0C480E4908600C480D490860FC
:1072D00000220C21052001F038F906490860084613
:1072E000006820B108A10348006800F081FE00F0AA
:1072F000EDFD10BD88000020903A0020A43A002047
:107300008000002084000020546D725100000000B5
:1073100010B516E000F0B0FD0C48C068C468201D30
:1073200000F06CFD0A480068401E094908600948E1
:107330000068401E0749086000F0C8FD204600F0C4
:10734000C0F8044800680028E4D110BD680200209D
:10735000280000202400002070B504460D46206C53
:1073600070B1216CE0680144E160D4E90210884208
:1073700001D32168E1602846226CE168FEF7B2F88B
:1073800070BD2DE9F04104460F4615464FF0000848
:10739000A66B206C48B9206800282CD1A06801F0A9
:1073A00027FD80460020A06025E07DB93946226C8B
:1073B0006068FEF797F8216C606808446060D4E963
:1073C0000101884217D32068606014E03946226CBE
:1073D000E068FEF787F8216CE068411AE1602168F7
:1073E000E068884203D2216CA068411AE160022D56
:1073F00001D106B1761E701CA0634046BDE8F08145
:10740000F0B585B001260027002408E012A0005D39
:1074100002A9085502A8005D00B902E0641C0C2C0A
:10742000F4DB00BF002510E00D4F0E4800EB850097
:1074300000210B464022CDE9001002A9384601F098
:10744000BFFB064606B902E06D1C012DECDB00BF58
:10745000304605B0F0BD000049444C450000000036
:107460007D7500084C0000202DE9FF5F0746884627
:1074700016469946DDE90EABB00000F0A7FB0546C5
:1074800075B1582000F0A2FB04462CB158212046CB
:10749000FEF7C9F8256304E0284600F035FD00E05A
:1074A000002454B100204B4632464146CDE900ABA2
:1074B000CDE90240384600F099F8204604B0BDE816
:1074C000F09F10B50446206B00F01EFD204600F032
:1074D0001BFD10BD01464A6A22B10A6B1268C2F157
:1074E000100000E0002070470146084A1268126848
:1074F0000AB9012200E000220A600A6822B9034AA0
:107500001268D268106800E00020704780000020F8
:1075100030B54FF46053144800F007042CB1C01D7F
:1075200020F00700104C041B1B1B104C2060002493
:107530000E4D6C60C218083A22F007020C4C226013
:1075400000240B4D2D686C60094D2D682C600146A0
:10755000541A4C60064C24680C60064D4C682C6034
:10756000054D4C682C6030BD900200205800002072
:1075700060000020680000206400002000BFFFF7CA
:10758000C7FE064800680128F9D94FF08050044929
:107590000860BFF34F8FBFF36F8FF0E7EC00002060
:1075A00004ED00E010B5044654B10020A060206056
:1075B0000021E16000231A461946204601F066F8D2
:1075C00010BD2DE9F04106460D4617469846069C2B
:1075D0000DB9246000E02760E663256401212046A0
:1075E00000F0E6FF84F84C80BDE8F0812DE9F05F03
:1075F00082460F4690469B460A9E0C9C4FEA8801A5
:10760000A522206BFDF7E5FFA8F10100216B01EB3E
:10761000800929F0070909F0070008B9012000E0F6
:10762000002050B900BF102080F31188BFF34F8FA6
:10763000BFF36F8F00BF00BFFEE77FB1002507E0FB
:10764000795D04F134004155785D00B902E06D1CAC
:107650000C2DF5D300BF00213F200155102E01D283
:10766000012000E0002050B900BF102080F31188F5
:10767000BFF34F8FBFF36F8F00BF00BFFEE7102E29
:1076800000D30F26E662A664201D00F0D8FB04F1AB
:10769000180000F0D4FB2461C6F11000A061646200
:1076A0005A465146484600F097FB20600B9808B1B7
:1076B0000B980460BDE8F09F10B5002407E004EBD0
:1076C00084010F4A02EB810000F0ACFB641C102C1B
:1076D000F5D30C4800F0A6FB0B4800F0A3FB0B48C9
:1076E00000F0A0FB0A4800F09DFB0A4800F09AFB5E
:1076F00004480949086004480849086010BD0000B2
:10770000EC0000202C020020400200205402002047
:10771000680200207C0200201C00002020000020C5
:1077200010B50146224800E0006803688B42FBD395
:107730001F4B984214D01F4B984204D31E4B9842C3
:1077400001D8012300E0002353B900BF102383F3C5
:107750001188BFF34F8FBFF36F8F00BF00BFFEE7ED
:107760000246436813448B4204D143684C68234467
:10777000436001460A464B6813440468A34211D192
:107780000E4C03682468A34208D04B680468646800
:1077900023444B6003681B680B6005E0074B1B68C4
:1077A0000B6001E003680B60884200D0016010BDEF
:1077B00058000020900200208F3A00206000002036
:1077C0002DE9F04104460D4616461F464FF00008CD
:1077D00065602461B5420CD8F01BA169884202D3D0
:1077E0004FF0010811E0211D0948006800F02AFB54
:1077F0000BE0BE4204D2BD4202D34FF0010804E0C8
:10780000211D0448006800F01DFB4046BDE8F081E2
:10781000840000208000002070B5054600F02CFB9D
:10782000A86B08B9012400E0002400F04FFB2046BB
:1078300070BD70B5054600F01FFBA86BE96B884270
:1078400001D1012400E0002400F040FB204670BD7F
:1078500070B505460E460E480068C068C468201D15
:1078600000F0CCFA94F8280000F0040028B1324669
:107870002946204600F0DAF805E094F8280000F0E8
:10788000FE0084F828002046216A884770BD000069
:10789000800000207FB500200190029003907FE0DF
:1078A000019800287CDB039C606908B9012000E096
:1078B000002010B9201D00F0A1FA684600F0E2F89F
:1078C000054601980A2869D2DFE800F06805072E0E
:1078D000365806082F3700BF00BF00BF94F82800B5
:1078E00040F0010084F828000298A269811803463C
:1078F0002A462046FFF764FFA8B194F8280000F05C
:10790000040038B10298A26981182A46204600F086
:107910008DF805E094F8280000F0FE0084F82800B7
:107920002046216A88473AE000BF94F8280000F01A
:10793000FE0084F8280032E000BF94F8280040F0F0
:10794000010084F828000298A061A06908B1012014
:1079500000E0002050B900BF102080F31188BFF371
:107960004F8FBFF36F8F00BF00BFFEE7A0694119C3
:107970002B462A462046FFF723FF10E094F8280004
:1079800000F0020018B9204600F0BEFA05E094F8B5
:10799000280000F0FE0084F8280000E000BF00BFCF
:1079A000002201A90348006800F044FF00287FF48A
:1079B00077AF7FBD88000020F8B505460C4600F083
:1079C000CBFC684600F05EF80646009820BB44B940
:1079D000B54206D801F09AFB31462846FFF738FF3A
:1079E0001CE03CB10E480068006808B9012000E0C6
:1079F00000200446A91B22460A48006800F028FB24
:107A000001F084FB50B94FF0805007490860BFF384
:107A10004F8FBFF36F8F01E001F078FBF8BD0000DE
:107A2000840000208800002004ED00E070B50446CA
:107A30000D46164604E0A06905442046216A8847A1
:107A4000A06941192B4632462046FFF7B9FE0028AF
:107A5000F1D170BD09480068006808B9012000E054
:107A6000002020B14FF0FF300549086005E00348D1
:107A70000068C06800680249086070471C00002068
:107A80004800002070B5044601F0C6F805460748D6
:107A90000068854204D200F00BF80120206001E06C
:107AA0000020206001480560284670BD900000203D
:107AB00070B508E00D480068C06804684FF0FF31F9
:107AC0002046FFF7C5FE09480068006808B9012094
:107AD00000E000200028EDD0044805680448006854
:107AE000024908600248056070BD00008000002067
:107AF000840000200E480068401C08B9012000E006
:107B0000002050B900BF102080F31188BFF34F8FC1
:107B1000BFF36F8F00BF00BFFEE700BF102080F3F0
:107B20001188BFF34F8FBFF36F8F00BF00BFFEE719
:107B30007400002008B500BF6846FFF7D5FC044676
:107B400020460099FFF738FFFFF7A4FEF4E770B571
:107B5000044600F091F994F9455010E0606A08B9C4
:107B6000012000E0002038B904F1240001F036FAC9
:107B700018B100F0CDFA00E003E0681E45B2002D18
:107B8000ECDC00BFFF2084F8450000F09FF900F016
:107B900073F994F9445010E0206908B9012000E01D
:107BA000002048B904F1100001F018FA08B100F003
:107BB000AFFA681E45B200E001E0002DECDC00BF2A
:107BC000FF2084F8440000F081F970BD2DE9F047F2
:107BD00005464FF00008DDB115F1090F01D901206C
:107BE00000E0002098B9083505F0070080B105F0E5
:107BF0000700C0F10809C9F1FF30A84201D20120F5
:107C000000E0002008B94D4402E0002500E0002516
:107C100000F0A2FB6448006808B9FFF779FC012076
:107C200000EBE570002877D0002DFCD05F4800689D
:107C3000854271D85E4E304604685E48844204D363
:107C40005D48844201D8012000E0002050B900BF07
:107C5000102080F31188BFF34F8FBFF36F8F00BFE9
:107C600000BFFEE716E0264624685248844204D34B
:107C70005148844201D8012000E0002050B900BFE3
:107C8000102080F31188BFF34F8FBFF36F8F00BFB9
:107C900000BFFEE76068A84202D220680028E2D157
:107CA00041480068844267D0306800F108084148C4
:107CB000804504D34048804501D8012000E00020E1
:107CC00050B900BF102080F31188BFF34F8FBFF36E
:107CD0006F8F00BF00BFFEE7206830606068A84279
:107CE00001D2012000E0002080F0010050B900BF67
:107CF000102080F31188BFF34F8FBFF36F8F00BF49
:107D000000BFFEE76068401B10281AD9671907F00A
:107D1000070010B9012001E02EE0002050B900BF9B
:107D2000102080F31188BFF34F8FBFF36F8F00BF18
:107D300000BFFEE76068401B7860656030683860AF
:107D400037601A4960680968081A184908600846C7
:107D500000681A490968884203D214480068174924
:107D60000860606840F000406060002020601448B7
:107D70000068401C1249086001F0C8F908F00700CB
:107D800008B9012000E0002050B900BF102080F3A6
:107D90001188BFF34F8FBFF36F8F00BF00BFFEE7A7
:107DA0004046BDE8F087000060000020640000202D
:107DB00058000020900200208F3A00206800002028
:107DC0006C0000200349086810B1C16C491CC164F3
:107DD0007047000018000020001F4FF08073036000
:107DE000001F21F001030360001F034B03601438E0
:107DF0000260203870470000F57A000801460A69E1
:107E0000D1E901309860D1E9010358605068884297
:107E100001D188685060002008611068401E106021
:107E20001068704700F1080141604FF0FF31816038
:107E300000F10801C160016100210160704700216B
:107E40000161704710B502460B685C1C0CB91069E3
:107E500007E002F1080000E04068446824689C42A2
:107E6000FAD944684C604C68A160886041600A613E
:107E70001468641C146010BD00BF102080F31188CA
:107E8000BFF34F8FBFF36F8F00BF0E480068401CD9
:107E90000C49086008460068012812D10A480068A9
:107EA000C0B208B9012000E0002050B900BF102086
:107EB00080F31188BFF34F8FBFF36F8F00BF00BFF8
:107EC000FEE770477400002004ED00E00D480068F4
:107ED00050B900BF102080F31188BFF34F8FBFF35C
:107EE0006F8F00BF00BFFEE706480068401E0549CF
:107EF00008600846006820B9002080F3118800BFA0
:107F000000BF70477400002070B506463546002E4D
:107F100050D0083D2C462848844204D32748844248
:107F200001D8012000E0002050B900BF102080F3EC
:107F30001188BFF34F8FBFF36F8F00BF00BFFEE705
:107F40006068C00F50B900BF102080F31188BFF3E4
:107F50004F8FBFF36F8F00BF00BFFEE7206808B9E7
:107F6000012000E0002050B900BF102080F31188EC
:107F7000BFF34F8FBFF36F8F00BF00BFFEE7606896
:107F8000C00FB8B12068A8B9606820F000406060F8
:107F900000F0E2F90A496068096808440849086085
:107FA0002046FFF7BDFB07480068401C05490860F4
:107FB00001F0ACF870BD0000900200208F3A002064
:107FC000640000207000002000204FF0E0210861D4
:107FD0008861064800684FF47A71B0FBF1F0401EEA
:107FE0004FF0E02148610720086170470000002041
:107FF00030B502460B46002152B900BF102484F36D
:108000001188BFF34F8FBFF36F8F00BF00BFFEE734
:10801000BBB1002012E00D4C04EBC0046468944234
:1080200003D10A4C04EBC0010AE031B9074C54F803
:10803000304014B9054C04EBC001401C0628EAD3BB
:1080400000BF09B10B604A6030BD0000BC000020D9
:108050002DE9F04105460E4617462C46FFF70CFF6A
:1080600094F94400401C10B9002084F8440094F9AD
:108070004500401C10B9002084F84500FFF726FF9A
:10808000A06B28B93A46314604F1240000F062F8AA
:108090002046FFF75CFDBDE8F081000070B50446A6
:1080A0000025D4B100F058F911480068012800D12A
:1080B00000E0002050B900BF102080F31188BFF30A
:1080C0004F8FBFF36F8F00BF00BFFEE70021204638
:1080D000FFF70AF801F01AF805463DB94FF0805055
:1080E00004490860BFF34F8FBFF36F8F70BD00006E
:1080F0005400002004ED00E00349096801600349D1
:108100000968416070470000400000202C000020FA
:1081100001200149086070473C00002070B504460A
:108120000D4654B900BF102080F31188BFF34F8F64
:10813000BFF36F8F00BF00BFFEE70548016818312D
:108140002046FFF77FFE01212846FEF7CDFF70BDD8
:108150001800002070B504460E46154654B900BFFD
:10816000102080F31188BFF34F8FBFF36F8F00BFD4
:1081700000BFFEE700BF60680F490968C8610E498B
:10818000826809680A620C4909681831826851607E
:108190000949096818318160074909688C622168BA
:1081A000491C216000BF0DB14FF0FF362946304613
:1081B000FEF79AFF70BD0000180000202DE9F0477F
:1081C00006460F4634464FF00109002E7DD0E06C84
:1081D00050B900BF102080F31188BFF34F8FBFF359
:1081E0006F8F00BF00BFFEE7A06CB84201D23D46D2
:1081F00000E0A56CE06AA84267D0E06C012864D179
:1082000033480068844201D0012000E0002050B9CA
:1082100000BF102080F31188BFF34F8FBFF36F8F23
:1082200000BF00BFFEE7D4F82C80E562A06900F033
:10823000004010B9C5F11000A06108EB8801254A83
:1082400002EB81016069884201D1012000E0002039
:10825000D8B3201DFFF7D2FD40B994F82C100120AF
:1082600088401D49096881431B48016000BF94F89C
:108270002C100120884018490968084316490860F5
:1082800000BFE16A01EB8101124A02EB81014868FB
:10829000A0608268E260211D826851608160E16AAD
:1082A00001EB81010B4A02EB81026261E16A01EBA1
:1082B0008101084A52F82110491CE26A02EB82024D
:1082C000044B43F8221000BF00BFBDE8F087000058
:1082D00018000020EC0000203000002010B5FFF74F
:1082E0008FF80446012C02D100F0E0FF0446012C77
:1082F00015D100BF102080F31188BFF34F8FBFF35B
:108300006F8F00BF4FF0FF300F49086001200F4909
:10831000086000200E49086000F070F810E0601C52
:1083200008B1012000E0002050B900BF102080F308
:108330001188BFF34F8FBFF36F8F00BF00BFFEE701
:108340000448006810BD00004800002034000020F0
:108350002C0000205000002002480068401C014909
:1083600008607047540000201F48006818B10120C1
:108370001E49086036E000201C49086000BF1C4808
:108380000068B0FA80F0C0F11F0101EB8100194ACA
:1083900052F8200008B1012000E0002050B900BFD1
:1083A000102080F31188BFF34F8FBFF36F8F00BF92
:1083B00000BFFEE700BF01EB81020E4B03EB820022
:1083C00042685268426000F108024368934201D15A
:1083D000C26842604268D268074B1A6000BF00BFA3
:1083E0001846006870470000540000203C00002040
:1083F00030000020EC000020180000200EB5002006
:1084000001903749084600780290FF200A46107014
:108410000846007800909DF8000000F01000314AF6
:1084200010701046007850B900BF102080F31188FA
:10843000BFF34F8FBFF36F8F00BF00BFFEE79DF804
:1084400000201020904308B9012000E0002050B91E
:1084500000BF102080F31188BFF34F8FBFF36F8FE1
:1084600000BF00BFFEE707E00198401C01909DF8A7
:1084700000004006000E00909DF8000000F0800013
:108480008028F1D00198082803D10020164A1060F6
:1084900004E00198C0F10700134A10601248006818
:1084A0000002114A10601046008800F4E06010607D
:1084B0009DF808000A4A10700C48006840F47F00DC
:1084C0000A4908600846006840F07F400860FFF7EE
:1084D0007BFD002006490860FCF76CFE00200EBD05
:1084E00000E400E0780000207C00002020ED00E0A7
:1084F0007400002010B500BF102080F31188BFF376
:108500004F8FBFF36F8F00BF00F08CFB18B14FF09F
:1085100080500449086000BF002080F3118800BF2C
:1085200010BD000004ED00E02DE9F04104460126F5
:10853000002722460021012000F007F805462846C2
:10854000FFF730F82846BDE8F0812DE9F8430546ED
:108550000E4617460024E5B1601EB0FBF5F0B042B0
:1085600017D305FB06F010F1510F12D805FB06F8E2
:1085700008F15000FFF72AFB0446B4B1A14609F107
:1085800050093B464A46314628460094FFF719F801
:108590000BE054B900BF102080F31188BFF34F8F58
:1085A000BFF36F8F00BF00BFFEE72046BDE8F88332
:1085B0002DE9F04105460E4601272C4654B900BF6F
:1085C000102080F31188BFF34F8FBFF36F8F00BF70
:1085D00000BFFEE7002C42D0E06B00283FD04FF0F8
:1085E000FF31E06BB1FBF0F0216C884237D3FFF72D
:1085F00043FCD4E90F12206801FB0200A0600020B8
:10860000A06320686060E06B401E226C216800FB64
:108610000211E160FF2084F8440084F845009EB90F
:10862000206908B9012000E00020A8B904F1100079
:1086300000F0D4FC80B14FF0805013490860BFF3C4
:108640004F8FBFF36F8F07E004F11000FFF7EAFBD5
:1086500004F12400FFF7E6FBFFF738FC00E00027F9
:108660000FB1012000E0002050B900BF102080F3BE
:108670001188BFF34F8FBFF36F8F00BF00BFFEE7BE
:108680003846BDE8F081000004ED00E02DE9FF432D
:1086900083B0064688461D464FF00009344654B95B
:1086A00000BF102080F31188BFF34F8FBFF36F8F8F
:1086B00000BF00BFFEE7B8F1000F01D1206C08B980
:1086C000012000E0002050B900BF102080F3118885
:1086D000BFF34F8FBFF36F8F00BF00BFFEE7022DC8
:1086E00002D1E06B012801D1012000E0002050B947
:1086F00000BF102080F31188BFF34F8FBFF36F8F3F
:1087000000BF00BFFEE700F077FA08B9059808B986
:10871000012000E0002050B900BF102080F3118834
:10872000BFF34F8FBFF36F8F00BF00BFFEE700BFE7
:10873000FFF7A2FBA06BE16B884201D3022D28D189
:108740002A4641462046FEF71CFE0746606A08B9E5
:10875000012000E0002068B904F1240000F03EFC94
:1087600088B14FF0805032490860BFF34F8FBFF39C
:108770006F8F08E03FB14FF080502D490860BFF384
:108780004F8FBFF36F8FFFF7A1FB012007B0BDE84C
:10879000F083059818B9FFF799FB0020F6E7B9F1C7
:1087A000000F04D101A8FFF7A7FC4FF00109FFF764
:1087B0008DFBFFF7D1FDFFF75FFB94F94400401CF0
:1087C00010B9002084F8440094F94500401C10B909
:1087D000002084F84500FFF779FB05A901A800F007
:1087E000A7F9F0B92046FFF724F8A0B104F1100072
:1087F0000599FFF793FC2046FFF7A9F900F086FCE6
:10880000002895D14FF0805009490860BFF34F8F81
:10881000BFF36F8F8CE72046FFF799F900F076FCE5
:1088200086E72046FFF793F900F070FC0020ADE7E3
:1088300004ED00E02DE9F74183B005460E464FF008
:1088400000082C4654B900BF102080F31188BFF3F4
:108850004F8FBFF36F8F00BF00BFFEE70EB9206CD4
:1088600008B9012000E0002050B900BF102080F3BB
:108870001188BFF34F8FBFF36F8F00BF00BFFEE7BC
:1088800000F0BAF908B9059808B9012000E0002005
:1088900050B900BF102080F31188BFF34F8FBFF392
:1088A0006F8F00BF00BFFEE700BFFFF7E5FAA76BC1
:1088B000F7B131462046FEF74FFD781EA0632069D0
:1088C00008B9012000E0002060B904F1100000F0B8
:1088D00085FB38B14FF080502F490860BFF34F8FB0
:1088E000BFF36F8FFFF7F2FA012006B0BDE8F08109
:1088F000059818B9FFF7EAFA0020F6E7B8F1000F7B
:1089000004D101A8FFF7F8FB4FF00108FFF7DEFAEA
:10891000FFF722FDFFF7B0FA94F94400401C10B9AC
:10892000002084F8440094F94500401C10B9002050
:1089300084F84500FFF7CAFA05A901A800F0F8F885
:10894000F0B92046FEF768FFA0B104F124000599B4
:10895000FFF7E4FB2046FFF7FAF800F0D7FB00280A
:10896000A3D14FF080500C490860BFF34F8FBFF385
:108970006F8F9AE72046FFF7EAF800F0C7FB94E70D
:108980002046FFF7E4F800F0C1FB2046FEF744FF65
:1089900000288AD00020A8E704ED00E02DE9F3418B
:1089A00082B0054600272C46B84654B900BF1020B7
:1089B00080F31188BFF34F8FBFF36F8F00BF00BFED
:1089C000FEE7206C08B9012000E0002050B900BF8C
:1089D000102080F31188BFF34F8FBFF36F8F00BF5C
:1089E00000BFFEE700F008F908B9039808B90120B4
:1089F00000E0002050B900BF102080F31188BFF3C1
:108A00004F8FBFF36F8F00BF00BFFEE700BFFFF7C0
:108A100033FAA66BFEB1701EA063206810B9FFF791
:108A2000D1F9A060206908B9012000E0002060B9F8
:108A300004F1100000F0D2FA38B14FF080503B49F9
:108A40000860BFF34F8FBFF36F8FFFF73FFA01202E
:108A500004B0BDE8F081039818B9FFF737FA002099
:108A6000F6E71FB96846FFF747FB0127FFF72EFA25
:108A7000FFF772FCFFF700FA94F94400401C10B9AC
:108A8000002084F8440094F94500401C10B90020EF
:108A900084F84500FFF71AFA03A9684600F048F881
:108AA00040BB2046FEF7B8FEF0B1206838B9FFF7AA
:108AB000E3F9A06800F018FA8046FFF707FA04F11E
:108AC00024000399FFF72AFB2046FFF740F800F047
:108AD0001DFB00289BD14FF0805014490860BFF364
:108AE0004F8FBFF36F8F92E72046FFF730F800F00B
:108AF0000DFB8CE72046FFF72AF800F007FB204625
:108B0000FEF78AFE002882D0B8F1000F0BD0FFF7E5
:108B1000B3F92046FEF7DEFC06463146A068FFF7B3
:108B20004DFBFFF7D3F9002092E7000004ED00E0D1
:108B300070B505460C4655B900BF102080F311886A
:108B4000BFF34F8FBFF36F8F00BF00BFFEE754B975
:108B500000BF102080F31188BFF34F8FBFF36F8FDA
:108B600000BF00BFFEE7FFF787F913480268686897
:108B7000131A2068401C08B9002619E00F4928681C
:108B80000968884206D06868904203D80126002010
:108B900020600DE02068984207D92068C01A206044
:108BA0002846FFF7A9FA002602E0002020600126EF
:108BB000FFF78CF9304670BD2C00002040000020EB
:108BC0002DE9FC5F06460F4690469946DDE90CAB61
:108BD0004B46424639463046CDE900ABFEF744FCF1
:108BE000054625B12846FEF7E5FA012401E04FF0DD
:108BF000FF342046BDE8FC9F0549096809B90120FA
:108C000005E00449096809B9022000E00020704726
:108C1000340000205400002001490868704700001B
:108C20002C0000202DE9F0414FF000086548006855
:108C300000287DD164480068451C634805601DBB61
:108C400000BF62480068006808B9012000E0002009
:108C500050B900BF102080F31188BFF34F8FBFF3CE
:108C60006F8F00BF00BFFEE758480768584800688C
:108C7000564908605648076056480068401C5549E8
:108C80000860FEF7E7FE00BF5348006885427ED3C8
:108C900000BF4E480068006808B9012000E00020CD
:108CA00020B14FF0FF304C4908606FE04748006842
:108CB000C068C4686668B54202D24748066065E08D
:108CC00000BF6069D4E902128A60D4E902214A60D7
:108CD000211D42688A4201D1E1684160002262613F
:108CE0000168491E016000BFA06AA0B100BFA06A70
:108CF000D4E907128A60D4E907214A6004F1180117
:108D000042688A4201D1216A41600022A262016860
:108D1000491E016000BF00BF94F82C10012088405C
:108D20002E49096808432D49086000BFE16A00E048
:108D30003FE001EB81012A4A02EB81014868A06013
:108D40008268E260211D826851608160E16A01EB06
:108D50008101234A02EB81026261E16A01EB810138
:108D60001F4A52F82110491CE26A02EB82021C4B96
:108D700043F8221000BF00BF1A49E06A0968C96AB7
:108D8000884286D94FF0010883E700E000BF15480C
:108D90000068C06A00EB8000114951F820000128EA
:108DA00001D94FF001081048006808B14FF00108E0
:108DB00004E00E480068401C0C4908604046BDE8CD
:108DC000F0810000540000202C0000201C00002036
:108DD000200000204000002048000020300000203B
:108DE000EC000020180000203C000020380000208B
:108DF00070B505462C460026002D6CD0374800681B
:108E0000844201D1012000E0002050B900BF1020B1
:108E100080F31188BFF34F8FBFF36F8F00BF00BF88
:108E2000FEE7E06C50B900BF102080F31188BFF35B
:108E30004F8FBFF36F8F00BF00BFFEE7E06C401E97
:108E4000E064A16CE06A884245D0E06C002842D121
:108E5000201DFEF7D3FF40B994F82C100120884064
:108E60001F49096881431E480160A06CE062E06A06
:108E7000C0F11000A06100BF94F82C1001208840C0
:108E80001749096808431649086000BFE16A01EB09
:108E90008101144A02EB81014868A0608268E260A7
:108EA000211D826851608160E16A01EB81010D4AF8
:108EB00002EB81026261E16A01EB8101094A52F829
:108EC0002110491CE26A02EB8202064B43F8221091
:108ED00000BF00BF0126304670BD00001800002012
:108EE00030000020EC00002070B505462C4600261E
:108EF000002D6AD03649E06A0968C96A88425DD2A5
:108F0000A06900F0004028B931480068C06AC0F18B
:108F10001000A061E16A01EB81012E4A02EB8101A0
:108F20006069884201D1012000E0002000283FD084
:108F3000201DFEF763FF40B994F82C1001208840F3
:108F40002549096881432448016021480068C06AB6
:108F5000E06200BF94F82C10012088401E49096887
:108F600008431D49086000BFE16A01EB8101194A0D
:108F700002EB81014868A0608268E260211D82687E
:108F800051608160E16A01EB8101124A02EB8102CA
:108F90006261E16A01EB81010E4A52F82110491C1D
:108FA000E26A02EB82020B4B43F8221000BF03E09F
:108FB00007480068C06AE062012606E00449A06C28
:108FC0000968C96A884200D20126304670BD000097
:108FD00018000020EC0000203000002070B503468F
:108FE000D868C16851B900BF102080F31188BFF361
:108FF0004F8FBFF36F8F00BF00BFFEE700BF886ACF
:10900000D1E90745A560D1E90754656001F118046D
:109010004568A54201D10C6A446000258D62046850
:10902000641E046000BF33480068002842D100BFBE
:109030004869D1E90245A560D1E9025465600C1D7B
:109040004568A54201D1CC68446000254D610468A3
:10905000641E046000BF00BF91F82C400120A040B6
:10906000254C24682043244C206000BFCC6A04EBCC
:109070008404224D05EB8404606888608568CD60B7
:109080000C1D85686C608460CC6A04EB84041B4D05
:1090900005EB84054D61CC6A04EB8404174D55F84B
:1090A0002440641CCD6A05EB8505144E46F8254026
:1090B00000BF11E000BF124C6068C86185680D6296
:1090C00001F1180485686C6084600D4D8D622C463A
:1090D0002468641C2C6000BF0A4CC86A2468E46AD7
:1090E000A04204D901220120074C206000E00022A8
:1090F000104670BD5400002030000020EC0000201D
:1091000054020020180000203C0000202DE9F0410E
:1091100000240027FEF7B0FE00255B48006808B178
:10912000012000E0002050B900BF102080F311881A
:10913000BFF34F8FBFF36F8F00BF00BFFEE75248F2
:109140000068401E504908600846006800286ED13B
:109150004E48006800286AD064E04D48C068C46882
:1091600000BFA06AD4E907128A60D4E907214A60E7
:1091700004F1180142688A4201D1216A416000224B
:10918000A2620168491E016000BF00BF6069D4E9A6
:1091900002128A60D4E902214A60211D42688A4293
:1091A00001D1E1684160002262610168491E0160ED
:1091B00000BF00BF94F82C10012088403549096891
:1091C00008433449086000BFE16A01EB8101324A7B
:1091D00002EB81014868A0608268E260211D82681C
:1091E00051608160E16A01EB81012B4A02EB81024F
:1091F0006261E16A01EB8101274A52F82110491CA2
:10920000E26A02EB8202244B43F8221000BF00BF47
:109210002249E06A0968C96A884203D901202049C5
:1092200041F825001A48006810B9012001E026E045
:109230000020002891D00CB1FEF70CFC19480668FC
:109240006EB100BFFFF7EEFC18B10120144941F8E0
:109250002500761E002EF5D1002012490860104826
:1092600050F8250058B1012700BF0C4800683807A6
:109270000D490860BFF34F8FBFF36F8F00BFFEF73C
:1092800025FE3846BDE8F08154000020280000206B
:109290005402002030000020EC00002018000020C4
:1092A0003C0000203800002004ED00E01CB5002444
:1092B000FDF7FCFF0D48006850B10D480F21002359
:1092C0004022CDE900100BA10C48FFF779FC0446C1
:1092D00054B900BF102080F31188BFF34F8FBFF344
:1092E0006F8F00BF00BFFEE720461CBD8800002036
:1092F0008C000020546D722053766300357B00088B
:10930000000000000000000000000000000000005D
:10931000000000F8000000000000003330000000F2
:1093200000100C06100C06000000000000000000F9
:1093300040C07840C0784000043F04043F0404006B
:10934000007088FC08300000001820FF211E00007B
:10935000F008F000E018000000211C031E211E0090
:1093600000F00888700000001E2123241927211016
:1093700010160E00000000000000000000000000B9
:10938000000000E018040200000000071820400060
:1093900000020418E0000000004020180700000050
:1093A000404080F0804040000202010F01020200B4
:1093B000000000F0000000000101011F0101010098
:1093C000000000000000000080B0700000000000FD
:1093D0000000000000000000000101010101010186
:1093E000000000000000000000303000000000001D
:1093F00000000000806018040060180601000000F2
:1094000000E010080810E000000F102020100F00EE
:10941000001010F8000000000020203F2020000075
:1094200000700808088870000030282422213000CD
:1094300000300888884830000018202020110E00D5
:109440000000C02010F8000000070424243F24007E
:1094500000F80888880808000019212020110E0053
:1094600000E0108888180000000F112020110E0065
:1094700000380808C83808000000003F000000005D
:109480000070880808887000001C222121221C001E
:1094900000E010080810E0000000312222110F0047
:1094A000000000C0C00000000000003030000000DC
:1094B000000000800000000000008060000000004C
:1094C0000000804020100800000102040810200065
:1094D00040404040404040000404040404040400B0
:1094E0000008102040800000002010080402010045
:1094F000007048080808F000000000303601000045
:10950000C030C828E810E0000718272423140B00F7
:109510000000C038E0000000203C23020227382071
:1095200008F8888888700000203F202020110E0055
:10953000C03008080808380007182020201008004C
:1095400008F808080810E000203F202020100F0035
:1095500008F88888E8081000203F20202320180001
:1095600008F88888E8081000203F20000300000069
:10957000C03008080838000007182020221E02000A
:1095800008F808000008F808203F210101213F20C9
:10959000000808F8080800000020203F20200000F4
:1095A00000000808F8080800C08080807F000000E4
:1095B00008F888C028180800203F2001263820001D
:1095C00008F8080000000000203F20202020300084
:1095D00008F8F800F8F80800203F003F003F20009E
:1095E00008F830C00008F808203F200007183F00A6
:1095F000E01008080810E0000F10202020100F00D5
:1096000008F808080808F000203F210101010000C7
:10961000E01008080810E0000F18242438504F000C
:1096200008F8888888887000203F2000030C3020CC
:1096300000708808080838000038202121221C000A
:10964000180808F8080818000000203F2000000053
:1096500008F808000008F808001F202020201F003C
:109660000878880000C83808000007380E0100009C
:10967000F80800F80008F800033C0700073C030066
:10968000081868808068180820302C03032C3020CC
:109690000838C800C83808000000203F200000003B
:1096A00010080808C8380800203826212020180093
:1096B000000000FE020202000000007F4040400067
:1096C000000C30C000000000000000010638C0009F
:1096D00000020202FE000000004040407F00000047
:1096E000000004020202040000000000000000006C
:1096F000000000000000000080808080808080806A
:109700000002020400000000000000000000000051
:1097100000008080808000000019242222223F2047
:1097200008F8008080000000003F112020110E008A
:109730000000008080800000000E11202020110019
:10974000000000808088F800000E112020103F20CB
:109750000000808080800000001F2222222213004F
:10976000008080F0888888180020203F202000009A
:109770000000808080808000006B9494949360004F
:1097800008F8008080800000203F210000203F205A
:1097900000809898000000000020203F202000005A
:1097A000000000809898000000C08080807F00004A
:1097B00008F8000080808000203F24022D30200027
:1097C000000808F8000000000020203F20200000D2
:1097D0008080808080808000203F20003F20003FEC
:1097E0008080008080800000203F210000203F20FA
:1097F0000000808080800000001F202020201F00AB
:10980000808000808000000080FFA12020110E00D9
:109810000000008080808000000E112020A0FF80CA
:10982000808080008080800020203F212000010077
:1098300000008080808080000033242424241900CC
:10984000008080E0808000000000001F20200000D9
:109850008080000000808000001F202020103F201A
:10986000808080000080808000010E3008060100AA
:1098700080800080008080800F300C030C300F004F
:1098800000808000808080000020312E0E3120007A
:10989000808080000080808080818E7018060100AA
:1098A00000808080808080000021302C22213000C8
:1098B00000000000807C020200000000003F4040E9
:1098C00000000000FF00000000000000FF0000009A
:1098D0000002027C800000000040403F00000000C9
:1098E0000006010102020404000000000000000064
:1098F00000000000000000005F00000000070007FB
:109900000000147F147F1400242A7F2A12002313DE
:10991000086462003649552250000005030000002B
:10992000001C224100000041221C000014083E08D7
:10993000140008083E0808000000A06000000808A5
:109940000808080000606000000020100804020001
:109950003E5149453E0000427F400000426151496E
:1099600046002141454B31001814127F1000274555
:10997000454539003C4A4949300001710905030059
:10998000364949493600064949291E000036360045
:109990000000005636000000081422410000141494
:1099A0001414140000412214080002015109060099
:1099B000324959513E007C1211127C007F494949BD
:1099C00036003E41414122007F4141221C007F4937
:1099D000494941007F09090901003E4149497A008E
:1099E0007F0808087F0000417F4100002040413F80
:1099F00001007F08142241007F40404040007F0268
:109A00000C027F007F0408107F003E4141413E0070
:109A10007F09090906003E4151215E007F0919298D
:109A2000460046494949310001017F0101003F409C
:109A300040403F001F2040201F003F4038403F0073
:109A40006314081463000708700807006151494552
:109A50004300007F41410000020408102000000084
:109A600041417F00040201020400404040404000A8
:109A70000001020400002054545478007F484444FC
:109A80003800384444442000384444487F00385467
:109A900054541800087E090102000C5252523E0034
:109AA0007F080404780000447D4000002040443DCD
:109AB00000007F102844000000417F4000007C042B
:109AC000180478007C0804047800384444443800C2
:109AD0007C1414140800081414187C007C08040476
:109AE0000800485454542000043F444020003C40A7
:109AF00040207C001C2040201C003C4030403C00AA
:109B00004428102844000C5050503C004464544CED
:109B1000440000083641000000007F0000000041C2
:109B200036080000100808100800000001000000BE
:109B30000000000000000000000000000000000025
:109B40000000000000000000000000000000000015
:109B50000000000002000000000000000000000003
:109B600000000000000000000000000000000000F5
:109B700000000000000000000000000003000000E2
:109B800000000000000000000000000000000000D5
:109B900000000000000000000000000000000000C5
:109BA00000040000080000000000000002000100A6
:109BB00000100000D49B000800000020BC00000042
:109BC00028510008909C0008BC0000208440000040
:109BD0004451000800A24A040000000000000000F8
:109BE000010203040607080900000000000000004D
:109BF0000000000000000000000000000000000065
:109C00000000000000000000000000000000000054
:109C10000000000000000000000000000000000044
:109C2000000000000F000000000000000000000025
:109C30000000000000000000000000000000000024
:109C40000000000000000000AAAAAAAA000000006C
:109C50000000000000000000000000000000000004
:109C600000000000000000000000000000000000F4
:109C700000000000000000000000000000000000E4
:109C800000000000000000000000000000000000D4
:04000005080050EDB2
:00000001FF
