:020000040800F2
:10000000502B00203D020008DD300008792E00084A
:10001000D93000084D2B0008133A000800000000FA
:10002000000000000000000000000000BD340008D7
:10003000B12B0008000000007531000825360008CB
:10004000570200085702000857020008570200082C
:10005000570200085702000857020008570200081C
:10006000570200085702000857020008570200080C
:1000700057020008570200085702000857020008FC
:1000800057020008570200085702000857020008EC
:1000900057020008570200085702000857020008DC
:1000A00057020008570200085702000857020008CC
:1000B00057020008570200085702000857020008BC
:1000C00057020008570200085702000857020008AC
:1000D0005702000889360008570200085702000836
:1000E00057020008570200085702000800F002F803
:1000F00000F090F80AA090E8000C82448344AAF132
:100100000107DA4501D100F085F8AFF2090EBAE82F
:100110000F0013F0010F18BFFB1A43F0010318473B
:100120002441000044410000103A24BF78C878C13F
:10013000FAD8520724BF30C830C144BF04680C60ED
:10014000704700000023002400250026103A28BF35
:1001500078C1FBD8520728BF30C148BF0B60704739
:100160006E2900F09582702900F0DF83662903F084
:100170002187652903F01E87672903F01B87612902
:1001800003F01A8703681B0A28BF41F08001692920
:1001900000F04282642900F03F82752900F03C8221
:1001A0006F2900F06C83782900F0AB83E92900F017
:1001B0000783E42900F00483F52900F00183EF2987
:1001C00000F06983F82900F0AA830368DB0928BFDF
:1001D00041F08001632901F02B81732901F0308106
:1001E000E32901F03B81F32901F0408100207047B1
:1001F0001FB501F047FB04000020002103F0C4FEFE
:10020000401C60600020002103F0A8FEE0601FBDDC
:1002100010B510BD01F008FB1146FFF7E9FF03F030
:1002200045FD01F0E5FB03B4FFF7F2FF03BC01F06D
:100230002DFC000080F308887047000009488047C3
:1002400009480047FEE7FEE7FEE7FEE7FEE7FEE7B8
:10025000FEE7FEE7FEE7FEE704480549054A064BD0
:100260007047000029360008ED00000850250020E6
:10027000502B002050270020502700207CB51D4621
:1002800016460C00009001D02044401E074B7B44D2
:100290002A4669460190304600F013FA05461CB123
:1002A0000020694600F020FA28467CBD6104000069
:1002B0000FB400B58DB010A9099000910B904FF0CC
:1002C000FF300A9000200C900648784406900648BB
:1002D00078446A4607900F9909A800F009FC0DB010
:1002E0005DF814FB430800005B0800002DE9FF5F88
:1002F0001D464FF0FF3B91464FF000085F46D5E9A1
:100300000146A96901987F1C8847296A8246884767
:100310000028F6D1BAF1FF3F0CD0002E24F4C064BF
:1003200019DD600614D5BAF12B0F09D0BAF12D0FE3
:100330000ED103E0584604B0BDE8F09F44F4806459
:10034000A96901987F1C8847761E8246002E02DD2F
:10035000BAF1300F03D0B9F1000F26D032E0A9690D
:10036000761E01987F1C44F400748847002E824654
:1003700005DDBAF1780F06D0BAF1580F03D0B9F104
:10038000000F10D01EE0B9F1000F02D0B9F1100F2C
:1003900018D1A969761E01987F1C24F4007488473F
:1003A0008246102002E0082000E00A20814609E091
:1003B000A96908FB0908761E01987F1C44F40074A3
:1003C00088478246002E05DD4946504600F07CFBFA
:1003D0000028EDDAE96901988847A00502D46FF09A
:1003E0000100A8E7E00725D1600613D5600502D516
:1003F000C8F1000000E0404629680A1D2A6009682B
:10040000220501D5087015E0220701D5088011E00A
:1004100008600FE02868011D29600068210502D5E9
:1004200080F8008006E0210702D5A0F8008001E0F6
:10043000C0F8008038467EE710B5431C02E010F893
:10044000011B71B18107FAD14FF0013202C88C1A39
:100450008C4314EAC211F9D0C01A0A0603D0C01E98
:1004600010BDC01A10BD0A0401D0801E10BD0902C3
:10047000FCD0401E10BD032A40F2308010F0030C67
:1004800000F0158011F8013BBCF1020F624498BFE7
:1004900011F801CB00F8013B38BF11F8013BA2F184
:1004A000040298BF00F801CB38BF00F8013B11F0FF
:1004B000030300F04D83083AC0F0088051F8043B74
:1004C000083A51F804CBA0E80810F5E7121D5CBF0C
:1004D00051F8043B40F8043BAFF30080D20724BF3F
:1004E00011F8013B11F801CB48BF11F8012B24BFD3
:1004F00000F8013B00F801CB48BF00F8012B704722
:100500004FF0000200B5134694469646203922BFAC
:10051000A0E80C50A0E80C50B1F12001BFF4F7AFF7
:10052000090728BFA0E80C5048BF0CC05DF804EBD9
:10053000890028BF40F8042B08BF704748BF20F847
:10054000022B11F0804F18BF00F8012B7047704745
:100550007047704770B5044685690068C10601D5CB
:10056000302600E02026C00707D070BDD4E9012165
:1005700030469047206A401C20626D1EF6D570BD43
:1005800070B5044685690078C00707D170BDD4E90D
:10059000012120209047206A401C20626D1EF6D564
:1005A00070BD09684A0501D540B27047C905FCD540
:1005B00000B2704709684A0501D5C0B27047C90545
:1005C000FCD580B2704770B50C460546012A05D0AF
:1005D0002878800600D5EA69002302E0012305E0BF
:1005E0005B1C934202D2E05C0028F9D1A869E618AE
:1005F000C01AA861286A184428622846FFF7AAFF93
:1006000004E0D5E9012114F8010B9047B442F8D376
:100610002846FFF7B5FF70BD2DE9F04106460024DE
:1006200010687529314616A510D0FFF7BAFF0028CB
:1006300002DA404213A507E031688A0701D512A506
:1006400002E0490704D511A5012401E0FFF7B2FF3C
:1006500000210A2206F1240709E0B0FBF2FCB0FBFE
:10066000F2F302FB1C00303078541846491C002875
:10067000F3D123462A463046BDE8F04100F0E8BAFF
:10068000000000002D0000002B00000020000000F2
:1006900011680268006A530501D508700AE0D305A5
:1006A00001D5088006E0130603D5C217C1E9000290
:1006B00000E008600120704701694A1C0261087867
:1006C000704700B58FB0CDE9013100210591054992
:1006D0007944CDE903101146684600F031F90FB0B6
:1006E00000BD0000E5FFFFFF0A6802F8010B0A6089
:1006F0007047D1E900239A4202D2531C0B6010705C
:10070000704700002DE9FF5F15468A460446DFF872
:10071000AC80F8440027D8E900103E46CDE900102F
:1007200010E03AF816106A4602A801F05DF8411C84
:1007300007D02178890603D5E269391891420DD88E
:100740000744761C2078800602D5E069B84205DDB2
:10075000AE42E6DB3AF816000028E2D1A069C01BE1
:10076000A0612046FFF7F6FED8E90010CDE90010A1
:10077000002017E03AF818106A4602A801F034F891
:10078000B0F1FF3F81460BD000250DF1080B05E0CD
:10079000D4E901211BF8050090476D1C4D45F7D3A6
:1007A00008F10100B0428046E4DB206A3844206250
:1007B0002046FFF7E5FEBDE8FF9F0000A6380000D9
:1007C0002DE9F0418046D21D22F007020025D2E932
:1007D0000002F52915A614D0011E72F1000106DAF7
:1007E0000023D0EB030063EB020211A608E0D8F867
:1007F00000108B0701D50FA602E0490701D50EA610
:1008000001251146002408F1240704E000F0D2F984
:1008100030323A55641C50EA0102F7D12B46324679
:1008200021464046BDE8F04100F012BA0000000049
:100830002D0000002B0000002000000030B400213B
:1008400000F1240408E002F00705D208303542EA3E
:100850004372DB086554491C52EA0305F3D104686E
:10086000002310A2250707D5A40600D421B1C4692E
:1008700001230DA2641EC46130BC00F0E9B910B5BB
:10088000044621461068FFF795FE02462046BDE863
:1008900010400023D2E7D21D22F00701D1E9002346
:1008A000CCE700000000000030000000F0B40D466E
:1008B0000188090502D5214C7C4402E01F4C7C4490
:1008C0000E34002100F1240608E002F00F0712099F
:1008D000E75D42EA03721B097754491C52EA030799
:1008E000F3D102780023120704D5702D06D009B188
:1008F000022311342246F0BC00F0AAB901231034BF
:10090000F8E770B504460D4621461068FFF752FE21
:10091000024629462046BDE870400023C6E7D21DA6
:1009200022F00703D3E90023C0E70368126843F00D
:10093000200303600823C3610023B7E708370000E2
:100940002DE9F05F894604464FF0000ADFF874B1E4
:10095000FB44C0F820A02046E1688847002874D0F6
:10096000252806D0D4E901219047206A401C206246
:10097000F1E700265F462046E168884720280546C3
:1009800007DB312D05D2781910F8200C08B1064389
:10099000F1E7B00701D526F00406C4F81CA0002733
:1009A000C4F818A02A2D09D0284603F028F938B336
:1009B00004EB8708303DC8F8185019E059F8041BBB
:1009C000204604EB87029161E1688847012F0546C4
:1009D00018D1E069002820DA26F020061DE0D8F8BA
:1009E000180000EB800005EB40003038C8F8180014
:1009F0002046E1688847054603F001F90028EED15A
:100A0000012F0AD02E2D08D12046E16888477F1C8F
:100A10000546022F46F02006C4DBA069002803DA51
:100A2000404246F00106A061F00701D026F0100612
:100A30006C2D0BD0682D09D04C2D39D06A2D35D0B6
:100A4000742D35D07A2D33D016E038E0E1682F468A
:100A500020468847B842054609D16C2F26D04FF46E
:100A60008060E168064320468847054604E06C2F15
:100A70001AD04FF4807006430DB3A5F14100192838
:100A800002D8203546F400664A46294620462660AC
:100A90004E46FFF765FB80B101280BD0F61D26F00E
:100AA000070000F1080956E74020E4E78020D8E776
:100AB0000020D6E706F104094DE7284652E7206AF0
:100AC000BDE8F09F983600003A2800D2303820F078
:100AD0002002412A01D3A2F13700884201D34FF00E
:100AE000FF30704702681144137801601846704760
:100AF000D16005497944516104497944116200216A
:100B00001161114600F0B6BCEDFFFFFF410100008E
:100B1000426842B1016811F8013B23B1521EC0E99D
:100B20000012184670470121C160881E7047426854
:100B30005AB1C368016843B983688B4205D0491E26
:100B4000521CC0E90012002070474FF0FF30704780
:100B500010B5203AC0F00B80B1E81850203AA0E858
:100B60001850B1E81850A0E81850BFF4F5AF5FEA8C
:100B7000027C24BFB1E81850A0E8185044BF18C93F
:100B800018C0BDE810405FEA827C24BF51F8043BE6
:100B900040F8043B08BF7047D20728BF31F8023B3A
:100BA00048BF11F8012B28BF20F8023B48BF00F8CE
:100BB000012B704730B5B0F10A024FEA900E71F187
:100BC00000034EEA817EB0EB0E0061EB91014FEA2B
:100BD000101E4EEA017E10EB0E0041EB11114FEAA0
:100BE000102E4EEA016E10EB0E0041EB11214FEA80
:100BF000104E4EEA014E10EB0E0041EB1141401831
:100C000041F100014FEAD00040EA41704FEAD101C2
:100C100010EB80054FEA810444EA907444EB010430
:100C20006D1944EB0404521BA3414FF0000348BF6D
:100C30000A3200D530BD401C41F1000130BD10B575
:100C4000044600F017FE0068005D00F0010010BDD2
:100C50002DE9F0470D4699469246044600F12408D6
:100C60000168880604D5E06921F01001216000E0E8
:100C70000120A84201DD471B00E00027A1697A1985
:100C800002EB0900081AA0612078C00602D42046B1
:100C9000FFF760FC002608E0D4E901211AF80600FD
:100CA0009047206A401C761C20624E45F4DB207879
:100CB000C0060AD52046FFF74DFC06E0D4E9012125
:100CC00030209047206A401C2062381EA7F101079F
:100CD000F4DC07E0D4E9012118F805009047206A08
:100CE000401C2062281EA5F10105F3DC2046FFF719
:100CF00047FC2078000602D50220BDE8F0870120DD
:100D0000FBE770472DE9FF4F0C461E464FF0FF37BB
:100D10008BB0D2E90001DDF860800A908A46C1F309
:100D20000A5505B93D46002108464FF00000BAF1CA
:100D3000000F00F4400005DA00EB80004FF44001A2
:100D400001EA50004FEA9059B9F1010F00DDB946B0
:100D50000A9850EA4A000ED044F61050A5F2FF352A
:100D600045432F14B8F1000F1ED07542291E1EDD19
:100D7000C9F100021CE0B8F1010F4FF0000001D0F2
:100D8000302103E0F24305E02154401CB042FBDB7C
:100D900030460022002121540B99C1F80880C1E996
:100DA00000200FB0BDE8F08FBD1B6D1CDEE74A468A
:100DB00000DA694206A800F0A9FD06AB93E8070037
:100DC00003AB83E8070050460A9900F066FE8DE801
:100DD0000700A0F500501F3800900398002D0ADD91
:100DE00042F21F014A460844002303A903906846C3
:100DF00001F0CFF809E0A0F500504A461F38002363
:100E000003A90390684601F0D9F88DE807000004B3
:100E1000000C03D04FF0FF30410800E01046B8F15D
:100E2000000F03D00022009215461EE0751E05D467
:100E3000FFF7C0FE303262556D1EF9D5B346012270
:100E4000084302D000227F1C04E02078302801D122
:100E500000227F1E002A099784D01DE0112D07DA99
:100E6000FFF7A8FE303262556D1C50EA0102F5D141
:100E7000084302D00098C8B10EE00021681E05E0CA
:100E8000235C625C63542254401E491C8142F7DBA0
:100E9000AB46A81B401E0990002004F80B000B98DD
:100EA000099AC0F80880C0E9002B7AE711264FF0B4
:100EB000000857E72DE9F04F88460446D21D22F07E
:100EC000070191B0D1E90001CDE90A0102F07EFEEF
:100ED00002460B98C00F01D02D2007E02068810743
:100EE00001D52B2002E0202101EAC000032A09904D
:100EF00001D0072A05DB03464146204600F0C6FC28
:100F00000BE12078800601D5E06900E00620B8F109
:100F1000650F814606D0B8F1660F18D0B8F1670F9B
:100F200070D131E00020B9F1110F009001DB1123E5
:100F300001E009F101030AAA01A90CA8FFF7E2FEEA
:100F4000DDE90C70002609F10105834647E0012028
:100F50004B4600904FF000470AAA01A90CA8FFF7E2
:100F6000D1FEDDE90DB00C995D46002610B909F1FE
:100F700001000D18B9EB050003D4C0F1FF3609F1EB
:100F80000105A5EB09002BE0B9F1010F01DA4FF0E3
:100F900001090020B9F1110F0090484601DD11232D
:100FA00000E003460AAA01A90CA8FFF7ABFEDDE9A1
:100FB0000C704D4600268346207800070AD4AB45C6
:100FC00000DA5D4601A8012D04DD411911F8011C6C
:100FD000302907D04F4502DA17F1040F04DA012057
:100FE00082460FE06D1EEEE7002F02DCED1B3E4453
:100FF00003E0781CA84200DD7D1CB81B00F1010A4B
:101000004FF000472078000703D4AA4501DB4FF0DA
:10101000FF3A0021B7F1004F0DF143088DF843105E
:1010200024D002202B23002F01DA7F422D230A2116
:10103000021EA0F1010000DC5FB197FBF1FC97FB01
:10104000F1F201FB1C7C17460CF1300C08F801CDC5
:10105000EEE7A8F1010003702188090501D54521BB
:1010600000E06521A0F1010800F8011C09980FA912
:10107000A1EB0807FF1D00B10120411901EBEA7047
:10108000A1693844081A401EA0612078C00602D425
:101090002046FFF75FFA099828B1D4E9012190476B
:1010A000206A401C20622078C00622D52046FFF727
:1010B00051FA1EE0002E04DBB34502DD01A8805D7D
:1010C00000E03020D4E901219047206A401C2062D2
:1010D000761CAAF101005FEA000A0AD100F0D2FBF7
:1010E000C0680168405CD4E901219047206A401C37
:1010F0002062281EA5F10105DCDC07E0D4E901210E
:1011000018F8010B9047206A401C2062381EA7F196
:101110000107F3DC2046FFF733FA032011B041E664
:101120002DE9F04F04460D46D21D22F0070089B08C
:10113000D0E900974846394602F048FD0246F80FCC
:1011400001D02D2307E02068810701D52B2302E081
:10115000202101EAC0038DF820300BB1012000E00E
:101160000020032A824601D0072A04DB29462046B4
:1011700000F08CFB3FE12078800601D40D2500E0D3
:10118000E569C7F30A560D2D49DA00214FEA175BCE
:1011900008464FF00000002F00F4400007DA00EB93
:1011A00080004FF4400100EBD07001EA600081152F
:1011B000012901DD4FF0FF3100224FEA850CBCF11F
:1011C000180F06D31346ACF118004FF08052C240FE
:1011D00003E04FF4801323FA0CF30CF10C0CBCF178
:1011E000200F04D3ACF1200C09FA0CF001E007FA4F
:1011F0000CF000294FF0004801DD18B90FE00ED1C6
:1012000040450CD319EB02095F4121B9404502D199
:101210009F4329EA0209BBEB175F00D0761C2088A8
:10122000000502D57B48784402E07A4878441938B2
:1012300008AA302302F80A30037C0AF10101002ECB
:101240000AF1020A53546A4602DC4FF0300101E011
:101250004FF031014FF001088DF8001002D0A6F2D6
:10126000FF3603E059EA470100D06B4E002D02DC47
:101270002178090704D54FF002082E218DF80110BE
:10128000C44600210BE0C7F303433F01C35C491C84
:101290006D1E02F80830052908F1010801DA002D59
:1012A000F1DC00210CE000EB1973491C1B786D1E6A
:1012B000082902F808304FEA091908F1010801DA93
:1012C000002DF0DC21688B0602D516E0A8F101089C
:1012D000E04505DD02EB080313F8013C302BF5D0A7
:1012E000B8F1000F09DD02EB080313F8013C2E2BC7
:1012F00003D1090701D4A8F10108002D05DD3E2125
:1013000002F808106D1E08F10108407C002E02F85A
:10131000080008F1010804DA2D20764202F80800DE
:1013200002E02B2002F808000A214FF47A7086426E
:1013300008F101080BDB96FBF0F3303302F80830BC
:1013400096FBF0F308F1010800FB136601E0642E40
:101350000CDB642096FBF0F3303302F8083096FB88
:10136000F0F308F1010800FB136601E00A2E06DB2A
:1013700096FBF1F0303002F8080008F1010896FB06
:10138000F1F001FB1060303002F80800A16908F1AB
:10139000010808EB050202EB0A00081AA061207898
:1013A000C00602D42046FFF7D5F8216A08AE01EB4B
:1013B0000A00206204E0D4E9012116F8010B9047ED
:1013C000BAF1010AF7D22078C00602D52046FFF70D
:1013D000C1F86E4609E016F8010B3E280FD0D4E99B
:1013E00001219047206A401C2062B8F10108F2D226
:1013F0002046FFF7C5F809B00320BDE8F08F206A4A
:101400002844206203E0D4E90121302090476D1E7A
:10141000EBD3F8E7E62D000002FCFFFF10B54369AF
:1014200013B1AFF3008001E0FFF7CDF8012010BD4C
:10143000127800F124010A7000224A700122EDE7BF
:1014400011684FF0FF32E9E710B5436913B1AFF30C
:10145000008001E0FFF756F9012010BD128800F16D
:10146000240182840022C2840122EDE711684FF03A
:10147000FF32E9E72DE9F34F4FF0000A0C465646DC
:101480008DB001200C9001F10C000B9062690B985B
:1014900001219047051E2DD0252D2CD0216A88478B
:1014A000C0B162690B9801219047216A88470028E2
:1014B000F7D16269411E0B98904700E0761CA16944
:1014C0000D988847216A88470028F7D1E1690D986F
:1014D0008847DBE7A1690D988847A842074601D1F4
:1014E000761CD3E7E1690D9888477F1C02D1BAF1D9
:1014F000000F6FD06CE162690B9800273D463946BA
:1015000090472A2804D162690B9801219047012550
:10151000DFF8D08262690B9801219047A0F1300179
:101520000A290AD24745E5DC07EB870100EB4107B2
:10153000303FDFD445F01005ECE7E90601D46FF049
:1015400000476C280AD04C2814D0682815D06A2887
:101550000DD074281CD07A281AD01DE062690B982F
:10156000012190476C2802D045F0040514E045F0B5
:1015700002050DE045F020050AE062690B980121A3
:101580009047682802D045F0080505E045F400655D
:1015900062690B9801219047C4E9015765283DD045
:1015A00019DC58287AD00CDC452837D004DC2528F3
:1015B00026D041289ED131E046282FD0472899D106
:1015C0002CE05B2877D0612828D063287CD0642861
:1015D00023D15AE0F7E06F2848D008DC66281DD0F8
:1015E00067281BD0692821D06E2816D127E07028E3
:1015F00045D0732868D0752847D078280DD14DE0A4
:10160000A1690D988847252805463FF469AFE1692F
:101610000D9888476D1C3FF46AAFD9E00D992346B9
:101620006A466FF00100AFF30080C6E045F040006D
:1016300023464FF000026060A80736D43EE0E8077A
:101640007FF447AF2068011D21600068290501D59E
:1016500006701BE7290701D5068017E7A90703D500
:10166000F117C0E9006111E706600FE745F040009F
:1016700023464FF008026060A80716D41EE040F62B
:101680000E0125EA0100606016E045F040002346A7
:101690004FF00A026060A80707D40FE045F0400051
:1016A0006060A80708D5234610220D996FF001004D
:1016B000AFF3008081E007E0102223460D996FF020
:1016C0000100FEF713FE78E04FF0000963284F4653
:1016D000C8464B46CB4602D05B2807D039E020797C
:1016E000C00601D40120A060012732E06269D4F86D
:1016F0000CB00B98012190475E2807D14FF00109EB
:1017000049466269D4F80CB00B989047216939B901
:1017100000210A4603AB43F82120491C0829FADBC3
:10172000D8B3216949B308F1010862690B98012116
:1017300090475D28F4D1B9F1000F09D0002003A92A
:1017400051F82020D24341F82020401C0828F7DB24
:1017500003AB2069002820794FEA40701ED05B4619
:101760002246CDF80080CDE901970D9900286FF051
:10177000010020DAAFF300801FE0C11703AA00EBDD
:10178000D1614B1121F01F0102EB8302411A136852
:101790000120884003431360C7E719E00D992246F2
:1017A00000286FF00100009702DAAFF3008004E038
:1017B000AFF3008001E0AFF3008000280ADA401C9C
:1017C00006D10C9820B14FF0FF300FB0BDE8F08F7C
:1017D0005046FAE7E90701D10AF1010A0644002060
:1017E0000C9053E6CCCCCC0C70B516460C46054696
:1017F00000F040F8036893F80101012806D0FF2C9F
:101800000FD8185D68B101202C7070BDD3F80701A6
:101810003246214603F2071303442846BDE87040D0
:1018200018474FF0FF3070BD754600F0EBF8AE463C
:1018300005006946534620F00700854618B020B5DC
:10184000FEF70AFDBDE820404FF000064FF000070C
:101850004FF000084FF0000B21F00701AC46ACE858
:10186000C009ACE8C009ACE8C009ACE8C0098D46C5
:101870007047000010B500F005F8001D10BD00BF56
:101880000927000000487047102500202DE9F0418D
:101890001F46044603260168072A01F4006004DBA2
:1018A00008B116A505E016A503E008B115A500E0EE
:1018B00015A521F010002060A069C01EA0610FB125
:1018C000401EA0612046FEF745FE4FB1D4E901213C
:1018D00038469047206A401C2062C01C206206E007
:1018E000206AFAE7D4E9012115F8010B9047761E2A
:1018F000F8D22046FEF744FEBDE8F0814E414E008E
:101900006E616E00494E4600696E66002DE9F04733
:10191000814616468AB0354878440DC88DE80D00DA
:1019200032487844801C03AC0DC884E80D0041F6B1
:101930009B300844372190FBF1F290FBF1F5A5F1C3
:10194000800501FB12041B3C02D56442012000E02B
:101950000020DFF898A080460027FA44AAF1BE0ACA
:101960000EE0E0070AD03246684607EB4701012344
:101970000AEB810100F022FB8DE8070064107F1C58
:10198000002CEED1194F7F44AE3F19E0E80715D087
:1019900007EB04100DF1180A90E80E008AE80E001B
:1019A000C068F04201D1981908903246012306A977
:1019B00003A800F003FB03AB83E807006D10641C71
:1019C000002DE3D14FF0010332466946B8F1000F14
:1019D00003A802D000F0DDFA01E000F0EFFAC9E957
:1019E0000001C9F808200AB0BDE8F087842700008C
:1019F00010B50446AFF300802046BDE81040FEF766
:101A000012BC000000487047F02400204FF0013C59
:101A100050F8042B51F8043B9A4221D1A2EB0C035D
:101A2000934313EACC1317D150F8042B51F8043B1D
:101A30009A4215D1A2EB0C03934313EACC130BD1BA
:101A400050F8042B51F8043B9A4209D1A2EB0C0345
:101A5000934313EACC13DBD04FF00000704700BF74
:101A6000D01A01BAB1FA81F101F0180122FA01F09D
:101A7000CB40C1F12001DBB2C0B2C01A2CFA01F395
:101A8000D11A914311EAC311E6D1704701491820D8
:101A9000ABBEFEE72600020070475FEA400C08BFBD
:101AA00091F0000F4FEA8C234FEAC12243EA5151D3
:101AB0004FEA1C5018BF00F5F0404FEA300018BF45
:101AC00041F000415FEA6C5C00F02980BCF1FF3F0F
:101AD00008BF40F080407047130C06BF12044FF05F
:101AE000100C4FF0000C130E04BF12020CF1080C86
:101AF000130F04BF12010CF1040C930F04BF9200EA
:101B00000CF1020CD30F04BF52000CF1010C114672
:101B10004FF00002A0F11F00A0EB0C00704711F085
:101B2000004F08BF704731F000413FF4D5AF0B0CB8
:101B300006BF09044FF0100C4FF0000C0B0E04BF51
:101B400009020CF1080C0B0F04BF09010CF1040C85
:101B50008B0F04BF89000CF1020CCB0F04BF4900AE
:101B60000CF1010CCCF12003A0EB0C0022FA03F3E2
:101B700002FA0CF241EA030100F10100704720F083
:101B80007F4C80EA030023F07F47ACEB070303F5AB
:101B90007C5300F0004003F1FF032DE980494FEA38
:101BA000154B09B44FEA144325EA0B4E24EA0348C7
:101BB0000FF2042606EB132749083E785FEA32024B
:101BC00003FB0667C7F5000707FB06F64FEA543725
:101BD0004FEAD64606F1020607FB066CCCF1005C24
:101BE0004FEA1C472CEA074C07FB06F40CFB06F5F2
:101BF00004EB15464FEA961634BF00204FF0004024
:101C00004FEAD13706FB07FC4FEA1C4C0CFB0BF7E5
:101C1000D21B03FB0CF761EB07010CFB0EF7B0EBDB
:101C2000074072EB17420CFB08F734BFA2EB0742E8
:101C3000B2EB074261EB17414FEA0C444FEA9107C0
:101C400006FB07FC4FEA1C4C0CFB0BF7B0EBC74044
:101C500072EB573203FB0CF734BFA2EBC742B2EB77
:101C6000C74261EB57310CFB0EF7B0EBC70072EBCC
:101C700057720CFB08F734BFA2EBC702B2EBC702E6
:101C800061EB5771039F4FEA816141EA921104EBC6
:101C9000CC044FEAD1374FEA826206FB07FC42EAE6
:101CA00090124FEA80604FEA1C4C0CFB0BF7D21BE2
:101CB00003FB0CF761EB07010CFB0EF7B0EB0740E1
:101CC00072EB17420CFB08F734BFA2EB0742B2EBF2
:101CD000074261EB17414FEA8C554FEA910704EB3D
:101CE0009C2406FB07FC4FEA1C4C0CFB0BF7B0EBEB
:101CF000C74072EB573203FB0CF734BFA2EBC7426D
:101D0000B2EBC74261EB57310CFB0EF7B0EBC700EB
:101D100072EB57720CFB08F734BFA2EBC702B2EBB1
:101D2000C70261EB577115EB4C254FEA816141EA1F
:101D300092114FEA82624FEAD13742EA901206FBD3
:101D400007FC44F100044FEA80604FEA1C4C0CFB96
:101D50000BF7D21B03FB0CF761EB07010CFB0EF733
:101D6000B0EB074072EB17420CFB08F734BFA2EB55
:101D70000742B2EB074261EB174115EB1C154FEA26
:101D8000813141EA92414FEA823242EA90424FEA7F
:101D900080304FEA0C7644F1000448EA03434EEAEF
:101DA0000B484FF0000EB2EB080C71EB030724BF99
:101DB000624639464EEB0E0E4FF0000B00185241B2
:101DC00049414BEB0B0BB2EB080C71EB03077BF1BA
:101DD000000B24BF624639464EEB0E0E4FF0000B4F
:101DE0000018524149414BEB0B0BB2EB080C71EB65
:101DF00003077BF1000B24BF624639464EEB0E0E03
:101E000051EA020718BF46F0010616EB0E7655F1AF
:101E1000000254F1000103D5BDE88901BDE8008846
:101E2000BDE88901BDE80048B619524141EB010106
:101E3000A3F10103704780807F7E7D7C7B7A797877
:101E4000777676757473727171706F6E6E6D6C6C7F
:101E50006B6A6A6968686766666564646363626121
:101E60006160605F5F5E5E5D5D5C5C5B5B5A5A59A2
:101E7000595858575756565555555454535352520E
:101E80005251515050504F4F4F4E4E4D4D4D4C4C66
:101E90004C4B4B4B4A4A4A494949484848474747AF
:101EA00047464646454545444444444343434342EC
:101EB000424242414141002B9C4630D477002BD016
:101EC0001CB54FEA370703B44FF010004FF0100174
:101ED000BAF1000F06D0BCF1000FDCBF40F00800E3
:101EE00040F008014FF000000FBCBDE810400BF1BE
:101EF000010BBBF1010F08BF5FEA170722BF12F108
:101F0000010211F101014FF0004143F1000300F023
:101F1000004043EA00007047F9D35708D0E746EA8B
:101F2000064613F1400F4FEA16461FDD13F1200F4E
:101F3000DFBF16430A46002120335B42BED0C3F107
:101F4000200746EA064602FA07F74FEA164646EA2F
:101F50000706C3F1200722FA03F201FA07F721FA74
:101F600003F14FF0000342EA0702A7E746EA020640
:101F700046EA06464FEA164646EA0106BCBF46EA6E
:101F80000646360C4FF000034FF000024FF0000100
:101F900094E72DE9804C9A46934670B491E8380056
:101FA00007C831EA400C48BF34EA430C03D5FFF7B9
:101FB000E6FDFFF780FFF0BCBDE8008C2DE9804C0A
:101FC0009A46934670B491E8380007C810F0804FE5
:101FD00008BF13F0804F03D100F005F8FFF76BFF47
:101FE000F0BCBDE8008C20F07F4780EA030023F0BE
:101FF0007F4C07EB0C03A3F57C5300F00040A3F1EA
:10200000FE0392F0000F00F0B38095F0000F00F097
:1020100077802DE901494FEA11404FEA144621EA41
:10202000004800FB06FC24EA064708FB06F607FB0F
:1020300008F800FB07F718EB06484CEB164C4FEA84
:10204000124B18EB07484FEA15464CEB174022EAB3
:102050000B4E0BFB06FC25EA06470EFB06F607FBBC
:102060000EFE0BFB07F71EEB064E4CEB164C4FF02B
:1020700000061EEB074E4CEB174B18EB0B0840F11C
:10208000000018EB0E0B58EB000840F100008F1A0F
:102090004FF000013CBFC943661B14BFB5EB040CF5
:1020A00000213CBFC943F61B4FEA17444EEA8E0E8F
:1020B00027EA04454FEA1C4704FB07622CEA074C59
:1020C00005FB07F70CFB05F604FB0CFC16EB0746BB
:1020D00042EB174216EB0C4642EB1C421BEB06068A
:1020E00058EB0202414146EA9E0601D5BDE801894E
:1020F000B619524141EB0101A3F10103BDE8018989
:102100004FEA14454FEA114724EA054621EA074CF5
:1021100005FB07F406FB07F70CFB06F105FB0CFCBF
:1021200011EB074144EB17444FEA124711EB0C4106
:1021300044EB1C4422EA074C05FB07F206FB07F7B9
:102140000CFB06F605FB0CFC16EB074642EB1742B0
:1021500016EB0C4642EB1C456A1854F1000148BFCF
:102160007047B619524141EB0101A3F101037047D9
:1021700095F0000F37D04FEA11424FEA144721EA99
:10218000024624EA074C02FB07F106FB07F70CFBAB
:1021900006F402FB0CFC14EB074441EB17414FEA39
:1021A000154714EB0C4441EB1C4125EA074C02FB9C
:1021B00007F506FB07F70CFB06F602FB0CFC16EB1B
:1021C000074645EB174516EB0C4645EB1C4212192A
:1021D00051F1000148BF7047B619524141EB01016E
:1021E000A3F1010370474FEA14454FEA114724EA6F
:1021F000054621EA074C05FB07F106FB07F70CFB38
:1022000006F24FF0000605FB0CFC12EB074241EB17
:10221000174112EB0C4251EB1C4148BF704792181A
:1022200041EB0101A3F1010370472DE9F04107469D
:102230000C46154600F0CAFEA02000F099FE64206E
:1022400000F0F4FE10B10120BDE8F081384600F046
:102250008FFE642000F0EAFE08B10220F4E700F0EF
:10226000B5FEA12000F084FE642000F0DFFE08B17E
:102270000320E9E7002604E0012000F02DFEA05530
:10228000761C681EB042F7DC002000F025FE691EB7
:10229000605400F0B3FE0020D6E7000010B55021D6
:1022A0000448FEF72DF9502202490020FFF7BDFF38
:1022B00010BD0000301000207CB5F02500200190FA
:1022C00001AE002411E0002000902919C8B20122BB
:1022D0006946FFF7AAFF9DF80000FF2801D1002002
:1022E0007CBD9DF800003055641C042CEBDB01988C
:1022F000F6E7000070B5084D00240AE005EBC401C4
:10230000E206100E00F00AF80A2001F085FC601CBD
:10231000C4B20A2CF2D370BD3010002070B506464E
:102320000D4600F053FEA02000F022FE642000F0D5
:102330007DFE08B1012070BD304600F019FE64201A
:1023400000F074FE08B10220F5E700240AE0285DE1
:1023500000F00EFE642000F069FE10B1E01CC0B277
:10236000E9E7641C082CF2DB00F048FE0020E2E7FD
:1023700010B5044609A001F0BFFD08E0C82001F037
:102380004BFC16480078772801D1012010BD201E93
:10239000A4F10101CCB2F1D100BFF7E7456E74653D
:1023A00072206C6F77657263617365206C657474FD
:1023B0006572207720746F20656E74657220426F9D
:1023C0006F746C6F6164657220636F6D6D616E64B4
:1023D000206C696E65200D0A0000000030000020AE
:1023E00070B588B004460D46F6480068002876D1DE
:1023F000012D0FD1207831280CD1F3A001F07CFD04
:102400002C21142000F0D5FB642001F005FC00F025
:102410009DFAD4E1012D16D12078322813D1EFA0F6
:1024200001F06AFD2C21142000F0C3FBE548006890
:1024300040F00600E34908600020F849C1F80404B0
:10244000C1F80804BBE1012D0CD12078332809D153
:10245000F3A001F051FDDB48006840F00800D949C5
:102460000860ACE1012D0CD12078342809D1F2A00C
:1024700001F042FDFFF712FFF549F6A001F03CFD27
:102480009DE1012D0CD12078352809D1F54801F0C6
:1024900033FDCC48006840F01000CA4908608EE166
:1024A000012D0CD12078362809D1EF4801F024FD08
:1024B000C448006840F04000C24908607FE1012D37
:1024C000A7D120783728A4D1E8A001F015FD01207C
:1024D00001F090FB642001F09FFB00F039FEB94849
:1024E000007800F0040000287CD0852D65D120788C
:1024F000012862D1B348006820F00200B1490860A9
:102500008021E01C01F040FBC449C1F80C0494F8A0
:10251000841094F8830001EB0020C049D1F80C141A
:10252000884247D1BD48D0F80804401CBB49C1F8D7
:10253000080491F80814491E01F00701B74A02EB9C
:10254000C1108022E11CFDF796FFB44890F8080402
:1025500000F0070050BB9B48007800F02000C0B19D
:10256000002613E0AD4AD2F808240123C3EBD202BF
:1025700006EB8203A94A92F8002403EB022291B2EF
:10258000A64A02EB062001F099FA761C042EE9DB3C
:102590000CE0A249D1F808140122C2EBD101B84ADB
:1025A00002EB812052149D4900F0BBFBB5A001F065
:1025B000A3FC02E0B4A001F09FFC012D59D12078CA
:1025C0000428FBD1AFA001F097FC944890F80804D0
:1025D00000F0070058B37B48007800F02000B8B145
:1025E000002612E04EE08D4AD2F80824D20806EB0D
:1025F00082038A4A92F8002403EB022291B2874AAE
:1026000002EB062001F05AFA761C042EEBDB0EE0FA
:10261000824991F8081449078A0D8049D1F80814B5
:10262000C908974B03EB81207C4900F07AFB654891
:10263000006820F00400634908600846007800F054
:102640002000B8B10846006820F0200008607348F8
:10265000D0F80804C1017148D0F800247C482C3817
:1026600040F82210FFF746FE642001F0D5FA00F092
:102670006DF9A4E0012001F0BDFA642001F0CCFA6C
:1026800000F066FD4F48007800F00800002830D0C8
:10269000202D2ADC07A807A907AA07ABCDE903214B
:1026A0000590CDE90103009178A12046FDF700FED9
:1026B000082816D120216648FDF722FF2022214656
:1026C0006348FDF7D8FEFFF715FE77A001F014FC74
:1026D00000F03CF93B48006820F0080039490860E8
:1026E0006DE079A001F008FC69E07FA001F004FC36
:1026F00065E03448007800F0100090B3012D35D12A
:10270000207831282EDB207839282BDC20783038CF
:102710004249C1F800042B48006840F026002949CE
:10272000086000203D49C1F80404C1F808040021F4
:102730003A48D0F8002446482C3840F8221037494F
:1027400091F8000401F07AF93448D0F800146E488A
:1027500001F0D2FB1B48006820F010001949086006
:102760002DE007E069A001F0C7FB28E06DA001F0B3
:10277000C3FB24E01348007800F04000F8B1012DBD
:102780001AD12078312813DB2078392810DC207802
:1027900030382249C1F800040A48006840F00100BE
:1027A000084908600846006820F04000086006E01C
:1027B00056A001F0A1FB02E060A001F09DFB08B073
:1027C00070BD0000180000205B315D204572617310
:1027D0006520417265612041200D0A00446F776ECB
:1027E0006C6F6164204172656120412070726F6777
:1027F00072616D2076696120586D6F64656D20701F
:10280000726F746F636F6C2C207573652062696ED4
:102810002066696C65200D0A000000008010002011
:102820005365742076657273696F6E206E756D6284
:102830006572200D0A000000517565727920766579
:102840007273696F6E206E756D626572200D0A007D
:102850006010002056657273696F6E3A20257320F0
:102860000D0A0000B8400008084100085265737462
:10287000617274696E672E2E2E200D0A0000000012
:102880000050000806000000150000005645522DBB
:1028900025642E25642E25642D25642F25642F257F
:1028A000642D25643A25640056657273696F6E2045
:1028B0006E756D62657220697320636F72726563F5
:1028C00074200D0A0000000056657273696F6E2057
:1028D0006E756D62657220666F726D6174206572CF
:1028E000726F72200D0A000056657273696F6E2058
:1028F0006E756D626572206C656E677468206572B6
:10290000726F72200D0A00005C410008426C6F6318
:102910006B206E756D626572206572726F72200D2C
:102920000A0000004461746120666F726D6174205A
:102930006572726F72200D0A000000004C656E67B0
:102940007468206572726F72200D0A0010B50CA0B9
:1029500001F0D2FA0BA001F0CFFA0FA001F0CCFAEF
:1029600017A001F0C9FA1EA001F0C6FA24A001F0D8
:10297000C3FA2EA001F0C0FA36A001F0BDFA10BDD6
:10298000200D0A005B315D20457261736520417244
:1029900065612041200D0A005B325D20536572693C
:1029A000616C2049415020646F776E6C6F616420C8
:1029B000746F20417265612041200D0A0000000003
:1029C0005B335D20536574204F54412076657273EC
:1029D000696F6E206E756D626572200D0A000000D1
:1029E0005B345D205175657279204F5441207665C6
:1029F0007273696F6E206E756D626572200D0A00CC
:102A00005B355D20446F776E6C6F61642070726F10
:102A10006772616D20746F2065787465726E616C89
:102A200020464C415348200D0A0000005B365D20D3
:102A30005573652070726F6772616D20696E2065D5
:102A4000787465726E616C20464C415348200D0AC3
:102A5000000000005B375D20526573746172742062
:102A60000D0A000010B5FFF727FC0446214617A009
:102A700001F042FA012C06D118A001F03DFA1D48E0
:102A800000F000FB10BD1420FFF772FCB0B91A482B
:102A900084420DD119A001F02FFA1C48006840F0C3
:102AA00001001A49086000201949C1F8000405E036
:102AB00018A001F021FA0F4800F0E4FA1AA001F082
:102AC0001BFAFFF743FF00BFDCE700004F54415FF4
:102AD000666C61673A202564200D0A0044697265BE
:102AE0006374206A756D7020746F204150500D0A18
:102AF0000000000000500008DDCCBBAA4F5441206C
:102B0000757064617465200D0A00000018000020D3
:102B1000801000204A756D7020746F2041726561CD
:102B20002041200D0A000000456E74657220426F3E
:102B30006F746C6F6164657220636F6D6D616E643C
:102B4000206C696E65200D0A0000000000BFFEE7E2
:102B500021B1026842F00102026004E002684FF60F
:102B6000FE731A40026070470146486880B27047A1
:102B700010B50022026847F6F0739A430C6A8B681E
:102B800023430C6923434C6923438C692343CC6959
:102B900023434C6A23438C6A23431A430260CB6865
:102BA00043600B6883604B68C36010BD4160704731
:102BB000704770B504460E4600F094F800250BE00F
:102BC0004FF0006101EB84214FF4806202FB05109D
:102BD00000F008F8681C85B2B542F1DB00F042F85D
:102BE00070BD000030B5044604254FF4302000F0DD
:102BF00085F80546042D17D10C48006940F0020005
:102C00000A49086108464461006940F040000861D3
:102C10004FF4302000F072F805460448006941F690
:102C2000FD71084001490861284630BD002002407E
:102C300004200B49C96801F0010109B101200EE02F
:102C40000749C96801F0040109B1022007E00449FD
:102C5000C96801F0100109B1032000E004207047A9
:102C6000002002400348006940F0800001490861EB
:102C7000704700000020024078B506460C46042547
:102C800000200090E80200F039F80546042D24D118
:102C90001348006940F00100114908613480E802DE
:102CA00000F02CF80546042D10D1B01C0090200C2B
:102CB00000990880E80200F021F8054608480069FC
:102CC00041F6FE7108400649086106E004480069C3
:102CD00041F6FE71084002490861284678BD0000AF
:102CE000002002400248034948600348486070479A
:102CF0002301674500200240AB89EFCD00B50246B5
:102D00000423FFF795FF034603E0FFF791FF034617
:102D1000521E012B01D1002AF7D102B90523184612
:102D200000BD70B506460C461546FFF7DBFF06E012
:102D300030462168FFF7A0FF2D1F361D241D002DF2
:102D4000F6D1FFF78FFF70BD2DE9F0410246002557
:102D50000026002000230024002791F803C00CF077
:102D60000F0591F803C00CF0100CBCF1000F03D05C
:102D700091F802C04CEA050591F800C0BCF1000FC3
:102D800031D0146800202BE04FF0010C0CFA00F356
:102D9000B1F800C00CEA03069E4220D183004FF038
:102DA0000F0C0CFA03F7BC4305FA03FC4CEA0404CD
:102DB00091F803C0BCF1280F06D14FF0010C0CFABA
:102DC00000FCC2F814C00AE091F803C0BCF1480F3F
:102DD00005D14FF0010C0CFA00FCC2F810C0401CE9
:102DE0000828D1D31460B1F800C0BCF1FF0F34DD66
:102DF000546800202EE000F1080C4FF0010808FA9A
:102E00000CF3B1F800C00CEA03069E4221D1830006
:102E10004FF00F0C0CFA03F7BC4305FA03FC4CEA25
:102E2000040491F803C0BCF1280F05D100F1080C8F
:102E300008FA0CF8C2F8148091F803C0BCF1480FEE
:102E400007D100F1080C4FF0010808FA0CF8C2F89D
:102E50001080401C0828CED35460BDE8F0810246A3
:102E6000002093680B400BB1012000E00020704768
:102E7000416170470161704700BFFEE708B501215D
:102E8000480500F089F90121082000F0A5F9142077
:102E90008DF803004020ADF8000003208DF80200FB
:102EA00069460C48FFF750FF14208DF8030080207E
:102EB000ADF8000003208DF8020069460548FFF7D1
:102EC00043FF40210348FFF7D5FF80210148FFF76A
:102ED000D1FF08BD000C014070B50546002607244F
:102EE00018E040212148FFF7C3FF022000F0B8FEA0
:102EF00040211E48FFF7BEFF80211C48FFF7AFFFAF
:102F000018B10120A0403043C6B2022000F0A8FE54
:102F1000601E44B2002CE4DA40211448FFF7A8FFF9
:102F20009DB180211148FFF7A3FF40210F48FFF713
:102F3000A1FF022000F094FE40210C48FFF798FF0B
:102F400080210A48FFF796FF0EE080210748FFF72F
:102F500091FF40210548FFF78DFF022000F080FE21
:102F600040210248FFF784FF304670BD000C01404D
:102F700070B5054607241CE040211348FFF778FF91
:102F80000120A040284020B180210F48FFF772FFA8
:102F900003E080210C48FFF76BFF022000F060FE89
:102FA00040210948FFF766FF022000F059FE601E2D
:102FB00044B2002CE0DA40210348FFF759FF80219A
:102FC0000148FFF757FF70BD000C014010B54021CC
:102FD0000948FFF74FFF80210748FFF74BFF02200A
:102FE00000F03EFE80210448FFF742FF40210248E6
:102FF000FFF73EFF10BD0000000C014010B540215E
:103000000948FFF735FF80210748FFF731FF02200D
:1030100000F026FE40210448FFF72CFF80210248E3
:10302000FFF728FF10BD0000000C014010B504465A
:1030300000BF601E04B2022000F012FE8021104882
:10304000FFF70DFF08B1002CF3DA002C01DA0120A4
:1030500010BD40210A48FFF70DFF022000F000FEDE
:1030600080210748FFF7FBFE08B10220F0E740216E
:103070000348FFF7FDFE022000F0F2FD0020E7E725
:10308000000C014010B504462068B0F1005F0DD37C
:1030900008492068884209D82068FDF7CBF806491E
:1030A0006068086008460068804702E003A000F0FE
:1030B00023FF10BDFF4F0020140000204661696C03
:1030C000656420746F206A756D7020746F20417282
:1030D00065612041200D0A0000BFFEE77047000037
:1030E00070B5002100230F22C47804B3154C246866
:1030F00004F4E064C4F5E064210AC1F10403CA40A9
:10310000447804FA03F184781440214309010E4CF9
:103110000678A155047804F01F050124AC40057819
:103120006D11AD0005F1E025C5F8004109E0047816
:1031300004F01F050124AC40044D0678761145F8D3
:10314000264070BD0CED00E000E400E080E100E00E
:103150000648006800F4E06005490843001D034983
:103160000860BFF34F8F00BFFEE700000CED00E0EA
:103170000000FA057047000029B1064A526902436F
:10318000044B5A6104E0034A52698243014B5A617D
:10319000704700000010024029B1064AD26902437C
:1031A000044BDA6104E0034AD2698243014BDA61DD
:1031B000704700000010024029B1064A126902431C
:1031C000044B1A6104E0034A12698243014B1A61FD
:1031D000704700000010024029B1064A926902437C
:1031E000044B9A6104E0034A92698243014B9A615D
:1031F000704700000010024029B1064AD26802431D
:10320000044BDA6004E0034AD2688243014BDA607F
:10321000704700000010024030B500210022002459
:1032200000232D4D6D6805F00C0121B1042905D056
:10323000082923D105E0294D056022E0274D0560CE
:103240001FE0254D6D6805F47012234D6D6805F47F
:103250008034022505EB92421CB9214D554305608F
:103260000BE01D4D6D6805F400351DB11C4D554337
:10327000056002E0194D5543056002E0174D0560F9
:1032800000BF00BF144D6D6805F0F0010909154D30
:103290006B5C0568DD4045600F4D6D6805F4E061CD
:1032A000090A104D6B5C4568DD4085600A4D6D680C
:1032B00005F46051C90A0B4D6B5C4568DD40C56083
:1032C000054D6D6805F44041890B074D6B5CC56881
:1032D000B5FBF3F5056130BD0010024000127A0025
:1032E00000093D001C0000202C00002000B587B024
:1032F000012141F20400FFF76FFF18208DF81B0039
:10330000A020ADF8180003208DF81A0006A91C486B
:10331000FFF71AFD04208DF81B004020ADF81800BF
:1033200003208DF81A0006A91548FFF70DFD154872
:1033300000F06CF80020ADF810000120ADF80C0092
:103340000220ADF80A000720ADF814000020ADF807
:103350000800ADF80400ADF812004FF48270ADF82B
:1033600006004FF40070ADF80E0001A9054800F00A
:1033700087F80121034800F03CF807B000BD0000C9
:10338000000801400030014070B505460E4600249B
:1033900005E0FF2000F006F82855601C84B2B44216
:1033A000F7DB70BD10B5044600BF0221094800F0EC
:1033B00059F80128F9D12146064800F05FF800BF0E
:1033C0000121044800F04EF80128F9D1014800F02D
:1033D00052F810BD0030014070B505460E4600247D
:1033E00004E0285DFFF7DEFF601C84B2B442F8DB26
:1033F00070BD21B1028842F04002028004E00288E0
:103400004FF6BF731A4002807047000010B50446A3
:103410001148844208D101218014FFF7EDFE0021FC
:10342000A014FFF7E9FE16E00C48844208D1012100
:103430000014FFF7C1FE00212014FFF7BDFE0AE0D3
:103440000748844207D10121C013FFF7B5FE0021D0
:10345000E013FFF7B1FE10BD00300140003800401E
:10346000003C00400246002013890B400BB10120B4
:1034700000E00020704701468889704781817047CD
:1034800010B50022028802F441520B884C88234375
:103490008C882343CC8823430C8923434C892343C2
:1034A0008C892343CC8923431A430280838B4FF2B8
:1034B000FF74234083830B8A038210BD704710B5CD
:1034C00000F002F810BD00000CB500200190009043
:1034D0003348006840F480303149086000BF30480C
:1034E000006800F4003000900198401C01900098A2
:1034F00018B90198B0F5A06FF1D12948006800F41F
:10350000003010B10120009001E0002000900098F0
:10351000012843D12348006840F010002149086089
:103520000846006820F0030008600846006840F084
:10353000020008601A484068194948600846406817
:1035400048600846406840F480604860084640682B
:1035500020F47C1048600846406840F4E810486059
:103560000846006840F08070086000BF0C480068A2
:1035700000F000700028F9D00948406820F00300EE
:10358000074948600846406840F00200486000BFB4
:103590000348406800F00C000828F9D10CBD000079
:1035A0000010024000200240042808D14FF0E02122
:1035B000096941F004014FF0E022116107E04FF08A
:1035C000E021096921F004014FF0E0221161704708
:1035D00030B50146B1F1807F01D3012030BD21F02B
:1035E0007F40401E4FF0E022506150170F2200280C
:1035F00007DA13071D0E094B00F00F04241F1D5599
:1036000003E013071C0E064B1C5400BF00204FF0B4
:10361000E0229061072010610020DFE718ED00E054
:1036200000E400E07047000010B51348006840F067
:1036300001001149086008464068104908400E49D9
:103640004860084600680E4908400B490860084673
:10365000006820F4802008600846406820F4FE00DE
:1036600048604FF41F008860FFF729FF4FF00060AB
:103670000449086010BD0000001002400000FFF87F
:10368000FFFFF6FE08ED00E010B510212A4800F01B
:1036900019F900284FD01021274800F0F5F82648E6
:1036A00000F0AEF92548FFF75FFA40F20111081A61
:1036B0002349098808442249088008460088401E9A
:1036C000204908441E49496D48601D48406D083036
:1036D0001B4948650846406DC96D884203D11848AA
:1036E000001D011F486516480088C0F50060FF28CE
:1036F00007DD13480088134908441149496D0860E3
:1037000006E010480E49496D086000200C49088009
:1037100000210A48FFF71CFA40F201110748FFF7A1
:1037200045FA0748406D0068044958394866012148
:103730000248FFF70DFA10BD003801405800024062
:10374000902400203000002010B592B004460121E2
:1037500044F20400FFF740FD18208DF847004FF4B5
:103760000070ADF8440003208DF8460011A93F48D1
:10377000FFF7EAFA04208DF847000002ADF8440094
:1037800003208DF8460011A93848FFF7DDFA0D94A3
:103790000020ADF840000C20ADF83E000020ADF850
:1037A0003C00ADF83A00ADF838000DA9304800F003
:1037B000BBF8012240212E4800F07BF84FF4A061B5
:1037C00001F007022B4B18684FF6FF0318402A4BF5
:1037D000034343EA0220274B186000BF25208DF8E1
:1037E000300001208DF8330000208DF831008DF875
:1037F00032000CA8FFF774FC012240F224411C485F
:1038000000F06DF801210846FFF7B6FC40F2011008
:103810000490002003900B9018480290002008901C
:1038200080200690002009901148001D0190002082
:10383000079005904FF400500A9001A91048FFF737
:1038400097F901210E48FFF783F900200D49088000
:10385000081D486588654830C8650848496D086096
:103860000121034800F019F812B010BD0008014012
:10387000003801400CED00E00000FA0530000020A7
:10388000580002409024002001F40072B2F5007F3D
:1038900000D100BFCA430280704721B1828942F43F
:1038A0000052828104E082894DF6FF731A408281C2
:1038B00070471AB1838A0B43838202E0838A8B4369
:1038C0008382704702460020B1F5007F00D100BF1F
:1038D00013880B400BB1012000E000207047F0B5C9
:1038E0000346002400260025002040F66A17B9424E
:1038F00000D100BF1846C1F3421401F01F06012792
:1039000007FA06F5012C01D10C3004E0022C01D19C
:10391000103000E014301AB107682F43076002E04E
:103920000768AF430760F0BD2DE9F04786B0054654
:103930000E460024A24600BFA1460027B08900B170
:1039400000BF2F462C8A4CF6FF700440F0880443D9
:103950002C82AC894EF6F3100440B08831890843BC
:10396000718908430443AC81AC8A4FF6FF400440A0
:10397000B0890443AC8201A8FFF74EFC1F48874280
:1039800002D1DDF810A001E0DDF80CA0A88900F458
:10399000004040B10AEBCA0000EB0A103168490050
:1039A000B0FBF1F807E00AEBCA0000EB0A1031683F
:1039B0008900B0FBF1F86420B8FBF0F004012009A5
:1039C000642101FB1089A88900F4004040B1322035
:1039D00000EBC900B0FBF1F000F00700044308E081
:1039E000322000EB09106421B0FBF1F000F00F0071
:1039F00004432C8106B0BDE8F08700000038014088
:103A000001468888C0F308007047C1F3080282802D
:103A1000704700BFFEE7000010B500F09DF81021D0
:103A20000548FFF725FA0620FFF7BCFC10210248E5
:103A3000FFF720FA10BD00000008014038B5044629
:103A4000D8208DF80000A0B28DF801002004000AF3
:103A50008DF802002004C0B28DF8030000F07CF85D
:103A6000FFF7DAFF10210748FFF702FA0421684642
:103A7000FFF7B2FC10210348FFF7FCF900F06CF8E7
:103A800038BD00000008014008B501210420FFF7FF
:103A9000A3FB1020ADF800008DF8030003208DF883
:103AA000020069460448FFF74FF910210248FFF76A
:103AB000E1F9FFF71BFC08BD0008014038B50546D9
:103AC0000C4602208DF80000C4F30F208DF8010091
:103AD00024F07F408DF802002002C0B28DF8030070
:103AE00000F03AF8FFF798FF10210848FFF7C0F9F7
:103AF00004216846FFF770FC4FF480712846FFF7F9
:103B00006BFC10210148FFF7B5F938BD00080140F2
:103B100070B506460C46154600F01EF810210D48FB
:103B2000FFF7A6F90320FFF73DFCC4F30740FFF7BA
:103B300039FCC4F30720FFF735FCE0B2FFF732FC95
:103B4000A9B23046FFF720FC10210248FFF792F996
:103B500070BD00000008014010B500BF10210948E9
:103B6000FFF786F90520FFF71DFCFF20FFF71AFC81
:103B7000C4B210210348FFF77DF904F001000028CA
:103B8000ECD110BD0008014070B502460B46002084
:103B900041F2210414E0157880EA052000210CE0B0
:103BA00000F400451DB184EA4005A8B203E04FF6D9
:103BB000FF7505EA40004D1CE9B20829F0DB521CF4
:103BC0001D1EA3F10106B3B2E5D170BD490050EA54
:103BD000C12018BF04204A0D18BF40F0010040F278
:103BE000FF72B2EB515F08BF40F00200012808BF2E
:103BF0000520704700F0010181F3138870473038C9
:103C00000A2801D2012070470020704710B5042017
:103C1000FFF7CAFC10BD000070B504460F480068ED
:103C20004FF47A71B0FBF1F52846FFF7D1FC07E0BD
:103C300000BF4FF0E020006900F480300028F8D089
:103C4000201EA4F101018CB2F2D14FF0E0200069F6
:103C500020F001004FF0E021086170BD000000205D
:103C600070B504460F4800680F49B0FBF1F52846CF
:103C7000FFF7AEFC07E000BF4FF0E020006900F462
:103C800080300028F8D0201EA4F101018CB2F2D1BE
:103C90004FF0E020006920F001004FF0E0210861C2
:103CA00070BD00000000002040420F000024FFF71C
:103CB000ADFF4FF46120FFF747FDFFF7DFF8FFF797
:103CC000E3FEFEF7EBFAFEF7CDFED6E00A20FFF7A3
:103CD000A3FF6A48806D6949496D88421BD0674AD5
:103CE000926D9288654B9B6D1B88D21A521C91B2C3
:103CF000624A926D1068FEF773FB6048806D083071
:103D00005E4988650846806DC96D884203D15B486D
:103D1000001D011F88655A48007800F0040090B12A
:103D20005848D0F80404642806D357A000F0E4F8FB
:103D300000205449C1F804045248D0F80404401C3F
:103D40005049C1F804044E48007800F001000028F2
:103D5000BBD04C48D0F800244C4850F822104CA05E
:103D600000F0CAF82C211420FEF723FF51A000F028
:103D7000C3F84448D0F80014444810F8210000F07B
:103D8000030000286ED1002413E03E48B0F8000480
:103D9000000400EB84214FF480623A48FFF7B8FE3C
:103DA000504901EB84204A143649FEF7BAFF601CE3
:103DB000C4B23448D0F80014344850F82100B4EBB1
:103DC000902FE2D32F48D0F80014304830F821006B
:103DD000C0F3090018B34FF480612A48FCF790FB48
:103DE0002848B0F80004000400EB84212548D0F8EE
:103DF0000034264830F82300C0F309022148FFF7B9
:103E000087FE2049D1F80034204931F82310C1F34E
:103E10000902344901EB84201A49FEF782FF194850
:103E2000D0F8000428B900201849091F0860FEF7DF
:103E300061FA2D4800F060F8012080F3138800BF7C
:103E40006420FFF7E9FE00BF2848006800F4E06046
:103E500027490843001D25490860BFF34F8F00BF65
:103E600000BFFEE7234800F047F80548006820F04F
:103E7000010003490860FEF769FD27E79024002050
:103E800018000020801000204300000034100020A3
:103E90005570646174696E67202564206279746569
:103EA00073206F66206669726D77617265200D0AF6
:103EB00000000000466C61736820696E20417265E5
:103EC00061204120686173206265656E20657261C2
:103ED000736564207375636365737366756C6C7961
:103EE000200D0A0000500008B04100080CED00E071
:103EF0000000FA05F44100080FB438B505A8009099
:103F00004FF400611348009B049AFCF7B7F90020B6
:103F100000901048FCF790FA85B200240DE000BF35
:103F200080210D48FFF7CEFC0128F9D10948015D39
:103F30000948FFF76AFD601C84B2AC42EFDB00BFAA
:103F400040210548FFF7BEFC0128F9D138BC5DF8D7
:103F500014FB0000300800200038014010B5002993
:103F60000AD00878002807D005487844FDF74EFDB0
:103F7000002801D0002010BD0248784410BD000088
:103F8000FA020000F202000010B500290AD00878F9
:103F9000002807D005487844FDF738FD002801D0F7
:103FA000002010BD0248784410BD0000EA02000065
:103FB000E2020000FCF77EBFFDF7B2B8000000008F
:103FC0000000000030313233343536373839414261
:103FD000434445464030580030313233343536376B
:103FE0003839616263646566403078000400000817
:103FF000000000000000000200010000103031321B
:1040000033343536373839616263646566787000F9
:1040100030313233343536373839414243444546FE
:104020005850000002400000000000A00000000006
:1040300005400000000000C8000000000C40000027
:104040000000409C00000000194000000020BCBEA1
:104050000000000034400000BFC91B8E00000004B7
:10406000B5400000504BCFD06607E2CF0100000002
:104070006C4100003E8251AADFEEA734010000002F
:10408000D9420000DCB5A0E23A301F97FFFFFFFFE6
:10409000B4450000FD25A0C8E9A3C14FFFFFFFFF05
:1040A000FF3F00000000008000000000FF3F000014
:1040B0000000008000000000446F776E6C6F616448
:1040C0002070726F6772616D20746F2065787465FF
:1040D000726E616C20464C4153482C20656E7465AD
:1040E000722074686520626C6F636B206E756D6200
:1040F000657220746F20757365202831207E203909
:1041000029200D0A0000000055736520657874654C
:10411000726E616C20464C41534820746F20646F6E
:10412000776E6C6F61642070726F6772616D2C20A6
:10413000656E7465722074686520626C6F636B20B5
:104140006E756D62657220746F20757365202831FD
:10415000207E203929200D0A00000000446F776E70
:104160006C6F61642070726F6772616D20746F2074
:10417000626C6F636B202564206F662065787465C0
:10418000726E616C20464C4153482076696120581C
:104190006D6F64656D2070726F746F636F6C2C202F
:1041A0007573652062696E2066696C65200D0A0072
:1041B0000D0A204669726D776172652075706461C1
:1041C000746520696E2041726561204120636F6DC6
:1041D000706C65746564212053797374656D206912
:1041E000732072657374617274696E672E2E2E204F
:1041F0000D0A00004572726F723A204669726D773F
:10420000617265206C656E677468206973206E6FDB
:10421000742061206D756C7469706C65206F662008
:10422000342062797465732C2063616E6E6F742024
:10423000777269746520746F20466C617368200D15
:104240000A00000090430008000000203000000039
:1042500028010008C043000830000020202B000087
:10426000440100081C00000043000000F8FFFFFFAD
:104270000C0000000E0000000F0000002E000000E7
:104280001001000043000000F8FFFFFF0040404025
:104290004040404040404141414141404040404019
:1042A00040404040404040404040404040050202C5
:1042B0000202020202020202020202020220202084
:1042C00020202020202020020202020202029090E0
:1042D00090909090101010101010101010101010DE
:1042E0001010101010101010020202020202888832
:1042F000888888880808080808080808080808083E
:104300000808080808080808020202024000000025
:10431000000000000000000000000000000000009D
:10432000000000000000000000000000000000008D
:10433000000000000000000000000000000000007D
:10434000000000000000000000000000000000006D
:10435000000000000000000000000000000000005D
:10436000000000000000000000000000000000004D
:10437000000000000000000000000000000000003D
:10438000000000000000000000000000000000002D
:1043900000A24A0400000000000000000102030423
:1043A00006070809000000000000000000000000EF
:1043B00001020304010203040607080902040608B7
:04000005080000ED02
:00000001FF
